:100000000C9497000C94B6000C94B6000C94B600B7
:100010000C94B6000C94B6000C94B6000C94B60088
:100020000C94CD040C94B6000C94B6000C94B6005D
:100030000C9406050C94B6000C94B6000C94B60013
:100040000C9450050C94B6000C94DC040C94B6008F
:100050000C94B6000C94B6000C94B6000C94B60048
:100060000C94B6000C94B6000C94B6000C94B60038
:100070000C94B6000C94B6000C94B6000C94B60028
:100080000C94B6000C94550B0C94B600950B6C0BAD
:100090006C0B6C0B6C0B6C0B6C0B6C0B950B6C0B7F
:1000A0006C0B6C0B6C0B6C0B6C0B6C0B9F0B6C0B65
:1000B0006C0B6C0B6C0B6C0B6C0B6C0B6C0B6C0B88
:1000C0006C0B6C0B6C0B6C0B6C0B6C0B9F0B6C0B45
:1000D0006C0B6C0B6C0B6C0B6C0B6C0B6C0B6C0B68
:1000E0006C0B6C0B6C0B6C0B6C0B6C0BB60B6C0B0E
:1000F0006C0B6C0B6C0B6C0B6C0B6C0BBA0B6C0BFA
:100100006C0B6C0B6C0B6C0B6C0B6C0B6C0B6C0B37
:100110006C0B6C0B6C0B6C0B6C0B6C0BC80B6C0BCB
:100120006C0B6C0B6C0B6C0B6C0B6C0B860B11243F
:100130001FBECFEFD0E1DEBFCDBF11E0A0E0B1E048
:10014000ECEDF7E200E00BBF02C007900D92A8357E
:10015000B107D9F712E0A8E5B1E001C01D92A83CB3
:10016000B107E1F70E941B100C94EC130C940000F3
:10017000823081F1A8F4882391F1813031F598B370
:100180009F7998BBC49AE82FF0E0ED57FE4FE081CD
:10019000F0E0611115C0E95EFE4F80818BBB0895D0
:1001A000833009F1843089F498B39F7A98BBC59A5B
:1001B000E82FF0E0ED57FE4FE081F0E0662359F3C1
:1001C000E45FFE4F80818BBB0895C49898B390661E
:1001D00098BBD9CFC69898B3906398BBD4CF98B347
:1001E0009F7898BBD0CF98B39F7C98BBC69ACBCF53
:1001F00087EF87BB8DB180658DB9709AE1E6F0E03D
:1002000080818E7F8083E2E6F0E080818E7F808334
:10021000379A86B1876086B9359887B1806687B985
:100220003F9887B1807E87B9369A8AB7806C8ABF3B
:1002300089B7806889BFA19A81B3876081BB82B189
:100240008C6882B9089587B7816087BF83B7877B41
:1002500083BF83B7856083BF87B7806187BF8FB552
:1002600080648FBD8FB580788FBD8FB581608FBD65
:100270008FB58D7F8FBD8EB5877E8EBD8EB5836029
:100280008EBD8EB58B7F8EBD86E990E09BBD8ABD0D
:1002900085B5806485BD85B5877785BD85B58F7E3D
:1002A00085BD85B5806285BD85B5816085BD85B517
:1002B000897F85BD13BCEBE8F0E08081806C808392
:1002C00080818160808380818D7F8083EAE8F0E097
:1002D00080818860808380818F7E8083808182603E
:1002E000808380818A7F808388EC90E09093870070
:1002F000809386000895E82FF0E049B3EE0FFF1FCA
:10030000EF58FE4F20813181220F331F306E50E0B5
:1003100002C0559547958A95E2F741705527242BE1
:10032000352B3183208381E02115304F09F080E0A7
:100330000895681751F06330C1F0623039F16111EE
:100340001EC0813041F18230A1F080917001843073
:1003500049F180916F01843019F080E090E00895B8
:1003600010926F018FEF9FEF08958230A1F08130DE
:1003700061F780916F018F5F80936F01E6CF6130ED
:1003800021F7833041F08823A1F3DFCF882319F0D0
:100390008330D9F6EECF809170018F5F809370012A
:1003A0008430B9F61092700181E090E00895CF9307
:1003B000DF93AC01403187E2580708F087C082E044
:1003C000809309029A01ADECBCEC0E944D11FC0136
:1003D000F695E795F695E795F695E795CF01880FA1
:1003E000991FEE0FFF1FEE0FFF1FEE0FFF1F8E0F67
:1003F0009F1FFA01E81BF90BE093830136952795BF
:1004000036952795ABE7B4E10E944D11EC01D695E6
:10041000C79524E62C9FC0012D9F900D1124EA0161
:10042000C81BD90B9E012E1B3F0BADECBCEC0E94F0
:100430004D11969587959695879596958795809376
:1004400084019A01369527953695279536952795F7
:10045000A5ECB0E20E944D11FC01F295E295EF701F
:10046000EF27FF70EF2728EE33E0E29FC001E39F04
:10047000900DF29F900D1124FA01E81BF90B9F01DA
:100480002C1B3D0B3695279536952795ABE7B4E1A8
:100490000E944D1196958795809385019A012E1B98
:1004A0003F0B369527953695279536952795A5ECDC
:1004B000B0E20E944D11929582958F7089279F70AE
:1004C000892780938601DF91CF9108959A01ADEC41
:1004D000BCEC0E944D11AC01569547955695479539
:1004E0005695479581E0809309026CCFCF93DF93B7
:1004F000EC0120E13EE0B9010E945C11AE01481B15
:10050000590BCA01B9010E945C11462FE62FF72F43
:1005100080EF91EFE89F9001E99F300DF89F300D3B
:1005200011242C0F3D1FA9E8B8E80E944D119695A3
:100530008795929582958F7089279F7089275CE3B4
:10054000589F9001599F300D11240E944D1196958E
:100550008795929582958F7089279F70892725E0CE
:1005600020933202CDEC8C9F212D112426952695C7
:100570002695382F5AE0259F301911243093830196
:100580009927831B91092AE030E0B9010E9470117C
:10059000609384014C9F812D1124869586958695C4
:1005A0005AE0859F40191124842F40938501AF01A3
:1005B000481B5109CA01B9010E947011609386015C
:1005C00082E080938701DF91CF910895909132026C
:1005D000891710F40C94B8000895CF93DF93CDB72A
:1005E000DEB760970FB6F894DEBF0FBECDBF809127
:1005F000CE0180932F024AE050E0BE016F5F7F4F33
:1006000090E00E948B1383E593E590939D01809386
:100610009C01BE016F5F7F4F8EE991E00E948413C1
:1006200060960FB6F894DEBF0FBECDBFDF91CF91BD
:100630000895CF93DF93CDB7DEB760970FB6F894E8
:10064000DEBF0FBECDBF80910A0190910B010E94C9
:10065000760287E0E2E2F1E0A8E8B1E001900D92D5
:100660008A95E1F7809186014AE050E0BE016F5F14
:100670007F4F90E00E948B13BE016F5F7F4F88E831
:1006800091E00E947913809185014AE050E0BE011B
:100690006F5F7F4F90E00E948B13BE016F5F7F4FB3
:1006A00088E891E00E947913E8E8F1E001900020E9
:1006B000E9F731978AE390E0918380838091840108
:1006C0004AE050E0BE016F5F7F4F90E00E948B13C5
:1006D000BE016F5F7F4F88E891E00E94791380919F
:1006E00083014AE050E0BE016F5F7F4F90E00E94BF
:1006F0008B13BE016F5F7F4F88E891E00E947913F2
:1007000060960FB6F894DEBF0FBECDBFDF91CF91DC
:100710000895CF93DF930E9419030E94ED02809108
:10072000610181FF04C080915A01811156C08091FE
:10073000610181FD04C080915A01811164C08091E2
:10074000610181FF05C080915A01882309F46DC0C1
:100750008091610181FD05C080915A01882309F4CF
:1007600079C081E1E7E4F1E0A8EEB1E001900D92FB
:100770008A95E1F7C8EED1E06BE072E088EE91E097
:100780000E947913DE010D900020E9F7119740E2F5
:1007900050E2BA014D935D936D937C9313976CEA8D
:1007A00071E0CD0104960E948413FE0101900020A7
:1007B000E9F73197E85EF1408E2FE0935D01E0327A
:1007C00048F490E2E82FF0E0E851FE4F90838F5F0D
:1007D0008032C1F7DF91CF91089568E871E088EE2B
:1007E00091E00E948413C8EED1E0FE010190002048
:1007F000E9F7319780E280836CE971E0CF010196DF
:100800000E948413B9CF8CE0E9E2F1E0A8EEB1E0F8
:1008100001900D928A95E1F76CE971E084EF91E027
:100820000E948413C8EED1E0A7CF68E871E088EE9B
:1008300091E00E948413C8EED1E0DE010D9000200B
:10084000E9F7119786E0E2E5F1E001900D928A95D3
:10085000E1F792CF81E1E6E3F1E0A8EEB1E00190AB
:100860000D928A95E1F7C8EED1E086CF809186009F
:10087000909187008038910540F08091860090919A
:1008800087008039910508F474C0809186009091AA
:1008900087008039910540F0809186009091870013
:1008A000803A910508F469C0809186009091870094
:1008B000803A910540F08091860090918700803BBE
:1008C000910508F45EC08091860090918700803B7E
:1008D000910508F58091860090918700803C9105F4
:1008E00040F08091860090918700803D910508F44A
:1008F0004CC08091860090918700803D9105B0F0BA
:100900008091860090918700803E910578F480EE7A
:100910008093BC0108958091860090918700803C6F
:100920009105C0F688EF8093BC0108958091860000
:1009300090918700803E910558F0809186009091BB
:100940008700803F910520F480EC8093BC010895DE
:100950008091860090918700803F910538F08091CA
:100960008600909187008F3F910598F01092BC010E
:1009700008958FEF8093BC0108958EEF8093BC01A2
:1009800008958CEF8093BC01089580EF8093BC01A3
:10099000089580E88093BC0108951F920F920FB6CE
:1009A0000F9211248F9381E080930A028F910F9010
:1009B0000FBE0F901F9018951F920F920FB60F92B7
:1009C00011240BB60F928F939F93EF93FF938CB1EB
:1009D00080934202E0916E0191E09E0F90936E0130
:1009E000F0E0E35EFD4F8083811105C081E08093DC
:1009F0009B0110926E01FF91EF919F918F910F904B
:100A00000BBE0F900FBE0F901F9018951F920F9264
:100A10000FB60F9211240BB60F922F933F934F9363
:100A20005F936F937F938F939F93AF93BF93EF9356
:100A3000FF9380915E01882361F080915A018111BA
:100A40002BC080915801811104C085B392E08927A1
:100A500085BB80910901882361F00E94890387EC9E
:100A600090E00197F1F700C0000088EE91E00E944D
:100A70003E0DFF91EF91BF91AF919F918F917F912B
:100A80006F915F914F913F912F910F900BBE0F90FF
:100A90000FBE0F901F90189581E080935801D9CF19
:100AA0001F920F920FB60F9211240BB60F92CF9296
:100AB000DF92EF92FF920F931F932F933F934F93E9
:100AC0005F936F937F938F939F93AF93BF93CF93D6
:100AD000DF93EF93FF93349B31C085B180936D0119
:100AE00086B1806586B960916D0170E080E090E02C
:100AF0000E94621220E030E040EC5FE30E94161397
:100B00009B01AC0160E070E08FE793E40E94CB11A1
:100B10006B017C0120E030E0A9010E94301287FDCA
:100B200018C320E030E04CE753E4C701B6010E944F
:100B3000121318160CF0FBC28CEF83BD1ABA8FEF9C
:100B40008BBB88B3806788BBB1E0A0E061E070E058
:100B500004C0B830D1F1AF5FBF5F4A2F50E029B376
:100B6000FA01EE0FFF1FEF58FE4F80819181880F31
:100B7000991F906E30E00A2E02C0359527950A9491
:100B8000E2F721703327822B932B91838083811589
:100B9000904FF9F6AA23F9F2CB0102C0880F991FF2
:100BA0004A95E2F7AC01809161018427809361014D
:100BB0009091610197FFCDCF9091610192FFC9CFD4
:100BC0008B7780936101B83031F688B3806588BB3C
:100BD000C59840910A0150910B01809103019091B9
:100BE00004014817590709F43BC180915E01811146
:100BF00046C110926C0110925E018091610183FFE9
:100C00000DC0445C5F4F50930B0140930A018091EB
:100C10006101877F8093610110925E018091610183
:100C200084FF35C180915A01882309F497C18091CE
:100C3000610184FD03C081E08093580180916101CE
:100C400087FD04C08091610182FF66C11092090195
:100C50008091BC018FB9779BFECF929A9298C098F1
:100C60008FB1C09AD82FD370D0936B018C70E82EBF
:100C7000F12CF594E794F594E794E0926A01609181
:100C800002018D2F0E9499018C01609101018E2D2E
:100C90000E949901C82FD0930201E0920101809136
:100CA000610187FD63C180915E019091610192FFB6
:100CB000F4C0811162C140E15EE0049F9001059F94
:100CC000300D149F300D112440910A0150910B01F9
:100CD000420F531FFCE3CF02400D511D11245093CE
:100CE0000B0140930A0181E080936C011092E501B1
:100CF00020910301309104018091610187FD6AC157
:100D0000E0915F01F09160013196F0936001E09312
:100D10005F018091660190916701A0916801B09197
:100D200069010196A11DB11D809366019093670131
:100D3000A0936801B09369016091640170916501AD
:100D40006F5F7F4F7093650160936401E83EF140EF
:100D500008F459C12F5F3F4F3093040120930301E2
:100D60001092600110925F01E0916C01E13031F06E
:100D7000F0910001C1E0FC27F0930001F091E50142
:100D8000FF2319F0F150F093E501203DF6EB3F070A
:100D900008F440C1205C384A3093040120930301D9
:100DA0008E389B4EAC40B10588F080910301909144
:100DB000040101979093040180930301109266014E
:100DC000109267011092680110926901403D26EB74
:100DD000520708F460C1405C584A50930B0140939D
:100DE0000A01683E714020F0109265011092640182
:100DF000E13009F46CC18091610182FF45C18091AD
:100E00000A0190910B010E9476028FEF8ABB8091BC
:100E1000E501882309F40AC180915E01811106C1B0
:100E2000C0916301CF5FC43008F0C9C1C0936301B2
:100E300080910701909108010E94D70180910902D9
:100E4000813009F4E8C1823009F4F2C180913202A4
:100E5000C81708F0FEC060E08C2F0E94B800F9C0EF
:100E60008091610181FFC1CE8091610182FDBDCE83
:100E70008091610187FDB9CE81E080935E01809110
:100E8000610181FFB6CE81E080936C01B6CE809186
:100E90005A01882309F4D2CECACE81116EC0809146
:100EA000610184FF6AC017FD09C201151105C1F077
:100EB000209186003091870066EF6003A001619F5A
:100EC000500D1124240F351F2038310508F0CAC1F8
:100ED00080E890E090938700809386000E9436041B
:100EE0001C160CF0D0C18091070190910801449626
:100EF00087322AE2920708F4A8C18AE692E2909328
:100F000008018093070140910A0150910B01209143
:100F1000030130910401F0CEE0915F01F091600196
:100F20009F01ADECBCEC0E944D119695879596956E
:100F3000879596958795AC01440F551F880F991F8B
:100F4000880F991F880F991F480F591FE417F5073D
:100F500009F07CCE81E0809309017ACE80915E0118
:100F600081116CCE81E08093590168CE80915E0141
:100F7000882309F4F0C08091610117FD34C1011587
:100F80001105E1F0809186009091870046EF4003C3
:100F90009001419F300D1124820F931F80389105DD
:100FA00008F4CBC08091860090918700820F931F38
:100FB00090938700809386000E94360440910A0136
:100FC00050910B0120910301309104018091610146
:100FD00087FF96CE1092600110925F011092660119
:100FE000109267011092680110926901609164018A
:100FF000709165016F5F7F4F70936501609364012D
:1010000080E090E0DC01E0916C01203DF6EB3F07D1
:1010100008F0C0CE2031CEE03C0708F0C1CE20540D
:1010200037453093040120930301BACE80916201C9
:101030008F5F8530E0F58093620190916C01913073
:1010400009F463C0843009F4C8C090913202891752
:10105000D0F1FF91EF91DF91CF91BF91AF919F912F
:101060008F917F916F915F914F913F912F911F9140
:101070000F91FF90EF90DF90CF900F900BBE0F90ED
:101080000FBE0F901F90189580910301909104015D
:101090000E947602BACE40318EE0580708F0A1CE09
:1010A0004054574550930B0140930A019ACE109239
:1010B000620180916C01813009F4DFC080E0909181
:1010C0003202891730F660E00E94B800C2CF8091EA
:1010D00064019091650131E0823F910509F030E0B3
:1010E00021E08837910509F020E0322B21E08C3691
:1010F000C1E09C0709F020E0232B31F18091000131
:1011000091E089278093000176CE90910001913083
:1011100009F45FC0843009F09CCF809132028530A1
:1011200008F497CF60E084E00E94B80092CFC70136
:10113000B6010E94341263BD01CD80E890E0909327
:1011400087008093860038CF863E914009F053CEC9
:10115000D5CF13BCF3CC2091030130910401A9E851
:10116000B8E80E944D1196958795929582958F705B
:1011700089279F7089274CE3489F9001499F300D34
:10118000112460E17EE0069FA001079F500D169F8D
:10119000500D1124240F351F9CE3C902200D311D71
:1011A0001124309304012093030181E080936C01AA
:1011B0001092E50140910A0150910B019DCD1092D2
:1011C000630180910701909108010E94D701C0E05E
:1011D0003DCE843009F039CFA0CF8091000181301D
:1011E00009F037CF9ACF809186009091870046EF23
:1011F00040039001419F300D1124820F931F8F3FB8
:10120000910509F008F4CECE8FEF90E0909387001F
:1012100080938600D1CEC13009F018CE8091320281
:10122000823008F416CF61E081E00E94B80011CF4F
:10123000C23009F00BCE80913202833008F409CF1E
:1012400062E082E00E94B80004CF9093080180938E
:10125000070140910A0150910B0120910301309147
:1012600004014ACD8091860090918700840F951FDC
:10127000909387008093860031CE80910001813069
:1012800009F0E7CE1BCFCC2309F498CE809107015B
:101290009091080144978A3642E29407B0F686E2BC
:1012A0009AE2909308018093070140910A015091BE
:1012B0000B0120910301309104011ECD8091860025
:1012C0009091870046EF40039001419F300D11241B
:1012D000820F931F8F3F910541F038F08FEF90E020
:1012E0009093870080938600F9CD8091860090913D
:1012F0008700820F931F9093870080938600EECD26
:1013000084E18093BD0141E06DEB71E082E20E94D7
:10131000E70B0E94E30B8111FCCF8FEA94E0019769
:10132000F1F700C0000041E063E372E082E20E9456
:10133000F80B0E94E30B8111FCCF809133020895DA
:1013400080E28093BD011092BE01809107019091CF
:1013500008019093BF018093C0011092C1011092C7
:101360000A0245E06DEB71E082E20E94E70B2FEF8D
:1013700083ED90E3215080409040E1F700C00000F1
:1013800080910A028823E1F3089580E48093BD01EF
:101390001092BE018091E6019091E7019093BF0108
:1013A0008093C0011092C1011092C20110920A02F2
:1013B00046E06DEB71E082E20E94E70B80910A0249
:1013C0008823E1F3089580E48093BD011092BE016B
:1013D00080911B0290911C029093BF018093C001E9
:1013E0001092C10181E08093C20146E06DEB71E093
:1013F00082E20E94E70B2FEF87EE93E021508040BE
:101400009040E1F700C00000089580915B01909149
:101410005C018130910551F100F1029741F4609136
:101420001B0270911C0280E392E00E94C71360913E
:10143000D40188E991E00E94BA1381E18093BD0153
:1014400041E06DEB71E082E20E94E70B87ED94E0F2
:101450000197F1F700C000000895609107017091B5
:10146000080189E991E00E94C713E1CF6091E6018C
:101470007091E70182ED91E00E94C713D8CF83E21B
:101480008093BD0181E08093BE0142E06DEB71E08D
:1014900082E20E94E70B0E94E30B8111FCCF8FEAEE
:1014A00094E00197F1F700C0000048E06AEC71E0B9
:1014B00082E20E94F80B0E94E30B8111FCCF089599
:1014C00082E28093BD0181E08093BE0142E06DEB3A
:1014D00071E082E20E94E70B0E94E30B8111FCCFD6
:1014E0008FEA94E00197F1F700C0000048E06AEC51
:1014F00071E082E20E94F80B0E94E30B8111FCCFA5
:10150000089582E48093BD0181E08093BE0142E0B2
:101510006DEB71E082E20E94E70B0E94E30B811108
:10152000FCCF8FEA94E00197F1F700C0000048E09B
:101530006AEC71E082E20C94F80B83E48093BD01C5
:1015400081E08093BE0142E06DEB71E082E20E9497
:10155000E70B0E94E30B8111FCCF8FEA94E0019727
:10156000F1F700C0000048E06AEC71E082E20C9400
:10157000F80B22E12093BD011092BE019093BF01B0
:101580008093C0017093C1016093C20146E06DEB8E
:1015900071E082E20E94E70B8FE39CE90197F1F78B
:1015A00000C00000089581E08093BD0180E5809334
:1015B000BE0185E08093BF0143E06DEB71E082E204
:1015C0000E94E70B2FEF8CE498E021508040904080
:1015D000E1F700C0000061E070E081E090E00C9471
:1015E000B90A82ED91E00E94B4139093E7018093D1
:1015F000E60188E991E00E94AC138093D40181E078
:101600008093BD0181E58093BE0185E08093BF0199
:1016100043E06DEB71E082E20E94E70B2FEF8BED70
:1016200095E0215080409040E1F700C0000061E06B
:1016300070E081E090E00C94B90A80E392E00E94AF
:10164000B41390931C0280931B0288E991E00E94DE
:10165000AC138093D40181E08093BD0181E5809338
:10166000BE0185E08093BF0143E06DEB71E082E253
:101670000E94E70B2FEF8BED95E0215080409040CA
:10168000E1F700C0000060E070E082E093E30E94B8
:10169000B90A61E071E082E091E30E94B90A61E079
:1016A00070E081E090E00C94B90A1F920F920FB69F
:1016B0000F9211240BB60F922F933F938F939F930A
:1016C000AF93BF93EF93FF938091710090E0FC0183
:1016D0003897E135F105B0F08091710080934302B5
:1016E00084E080937400FF91EF91BF91AF919F913F
:1016F0008F913F912F910F900BBE0F900FBE0F90C7
:101700001F901895EA5BFF4F0C94A3118091810103
:10171000E0914402F0914502E80FF11D80917300C1
:10172000808384E980937400DECF809146028093A9
:1017300073001092810185E880937400D4CF80916A
:10174000810190914702891760F7E0914402F0917E
:10175000450291E0980F90938101E80FF11D80817F
:101760008093730085E880937400BDCF85EA8093F1
:101770007400B9CF209181018091470230E090E060
:10178000019728173907DCF485EC80937400ABCF00
:10179000E0914402F09145028091810121E0280FFF
:1017A00020938101E80FF11D809173008083809167
:1017B000470230E090E00197281739072CF385E8BD
:1017C0008093740090CF80917400817008959091FF
:1017D000740090FDFCCF8E7F80934602709345028B
:1017E000609344024093470285EA80937400089511
:1017F0009091740090FDFCCF8160809346027093BD
:101800004502609344024093470285EA8093740046
:1018100008958FEF80937300109271008CE0809395
:10182000700008955D9BFECF8CB95D9BFECF08953F
:10183000FC012081222349F031965D9BFECF2CB91B
:101840005D9BFECF21912111F8CF08959C01FC01F1
:101850004491442369F00196F90124915D9BFECFE8
:101860002CB95D9BFECF9C01FC0144914111F3CF4B
:1018700008958AB188698AB9E5E9F0E080818660D7
:1018800080831092900087E689B9089580E89EE3EE
:1018900003C00197009721F05F9BFBCF8CB10895A7
:1018A00080E00895EF92FF920F931F93CF93DF9301
:1018B000CDB7DEB760970FB6F894DEBF0FBECDBFD1
:1018C000F82E0E94E30B8111FCCF42E06DE272E042
:1018D00080E90E94F80B8FE39FE10197F1F700C0C8
:1018E000000020912D0230E0322F222780912E021D
:1018F000282B220F331F122F002704E0109F012DE9
:1019000011271124832F99279093C9018093C8012F
:10191000F11067C09C01220F331F220F331F220FCB
:10192000331F280F391FADECBCEC0E944D1196956A
:101930008795969587959C010330110509F043C062
:101940002F5D3F4F3093C9012093C801C90123E2A5
:10195000E22EF12C4AE050E06BE072E00E948B1323
:101960004AE050E0BE016F5F7F4FC7010E948B13BA
:101970000BE012E0F80101900020E9F731978EE2C8
:101980008083BE016F5F7F4FCF0101960E94841359
:10199000F80101900020E9F7319786E490E0918307
:1019A000808380910F02863409F44DC060960FB693
:1019B000F894DEBF0FBECDBFDF91CF911F910F9185
:1019C000FF90EF900895205E3F4F3093C901209320
:1019D000C8018DE2809F7001819FF00C1124C90124
:1019E000B9CF4AE050E06BE072E00E948B134AE00E
:1019F00050E0BE016F5F7F4F89E1282F209FC0011B
:101A0000219F900D11240E948B130BE012E0F8012E
:101A100001900020E9F731978EE28083BE016F5F6D
:101A20007F4FCF0101960E948413F801019000209E
:101A3000E9F7319783E490E09183808380910F02EE
:101A4000833409F0B3CF90E390930F028093100298
:101A5000ADCF91E0811101C090E09FB9779BFECF9F
:101A60006FB9779BFECF809162008860809362009F
:101A700080916200877F809362000895CF93C09128
:101A800082018C0F911DFC01608181E00E94290D73
:101A900081E08C0F80938201803181F0803211F0DF
:101AA000CF91089585ED8A95F1F7000060E880E018
:101AB0000E94290D10928201CF910895F5EDFA95BB
:101AC000F1F7000060EC80E00E94290D8091820116
:101AD000E5CFEF92FF921F93CF93DF931F92CDB785
:101AE000DEB7182F660F660F660F605C80E0998383
:101AF0000E94290D85ED8A95F1F70000E12E99816C
:101B0000F92E18E0F70161917F0181E00E94290D13
:101B1000F5EDFA95F1F700001150A1F70F90DF9164
:101B2000CF911F91FF90EF90089590E4899F600DF1
:101B30001124605C80E00C94290DCF93C82F88237A
:101B4000B1F1843698F48A30D8F48DECC89F812D99
:101B500011248695869586956C2F9AE0899F601949
:101B60001124605D81E0CF910C94290D69E2869F7C
:101B7000612D112462956F70605D81E00E94290DD6
:101B800089E2C89F812D112482958F706C2F94E675
:101B9000899F601911248DEC689F612D1124669531
:101BA00066956695605D81E00E94290DCECF60E369
:101BB00081E0CF910C94290DCF93C82F87FD03C0EE
:101BC000CF910C949D0D6DE281E00E94290D85ED71
:101BD0008A95F1F700008C2F8195CF910C949D0D83
:101BE0006EE080E00C94290D6CE080E00C94290DEF
:101BF0006EE180E00C94290D68E180E00C94290DE1
:101C0000E2E6F0E08081886080838081877F808346
:101C1000089561E080E00E94290D8FE19CE1019729
:101C2000F1F700C00000089562E080E00E94290DF5
:101C30008FE697E10197F1F700C00000089560EC8E
:101C400080E00C94290D60E880E00C94290DCF937E
:101C5000C0E160E281E00E94290D85ED8A95F1F7EF
:101C60000000C150B1F7CF910895682F81E00C9426
:101C7000290D1F93CF93DF93EC0180E090E010E0FB
:101C8000FE01E80FF91F608181E00E94290D85EDBA
:101C90008A95F1F700001F5F812F90E0FE0101900F
:101CA0000020E9F7EC1BFD0B3297E817F90740F726
:101CB000DF91CF911F9108958FEF99EF0197F1F781
:101CC00000C0000088E08093610060E380E00E9433
:101CD000290D8FE59DE60197F1F700C0000060E354
:101CE00080E00E94290D8FE59DE60197F1F700C085
:101CF000000060E380E00E94290D8FE59DE60197DA
:101D0000F1F700C0000068E380E00E94290D8FE138
:101D10009EE40197F1F700C0000068E080E00E94B7
:101D2000290D8FE19EE40197F1F700C0000061E00A
:101D300080E00E94290D8FE19EE40197F1F700C039
:101D4000000066E080E00E94290D8FE19EE401978B
:101D5000F1F700C000006CE080E00E94290D8FE1E7
:101D60009EE40197F1F700C000000895AF92BF9282
:101D7000CF92DF92EF92FF920F931F93CF93DF9357
:101D8000CDB7DEB769970FB6F894DEBF0FBECDBFF3
:101D9000B42EF22E002351F08B019C01002737FD59
:101DA000039511272227332797FD8CC0FF2009F4C4
:101DB00081C010E09E012F5F3F4F690101C0122FCB
:101DC0002AE030E040E050E00E948411A62F2A8BE8
:101DD0003B8B4C8B5D8B6A897B898C899D8921E04B
:101DE000210FF601E10FF11DA05DA0832F11E7CFB8
:101DF000AA24A394AF0CF601EF0DF11D2EE220836F
:101E000001C0A12E2AE030E040E050E00E948411A1
:101E1000A62F2A8B3B8B4C8B5D8B6E8B7F8B888F99
:101E2000998F6A897B898C899D8911E01A0DF60149
:101E3000EA0DF11DA05DA083611571058105910575
:101E400001F7BB2081F0E1103BC090E21B1510F0C0
:101E50000AC0182F81E0810FF601E10FF11D908378
:101E60008B11F7CF1B2D002331F0F601E10FF11D8F
:101E70008DE280831F5F1150F601E10FF11D60813B
:101E800081E00E94290D35ED3A95F1F7000011111E
:101E9000F2CF69960FB6F894DEBF0FBECDBFDF91CB
:101EA000CF911F910F91FF90EF90DF90CF90BF9057
:101EB000AF900895A12C9E012F5F3F4F6901A2CFE3
:101EC00090E3C4CF90958095709561957F4F8F4F2B
:101ED0009F4F6CCF9F92AF92BF92CF92DF92EF92C3
:101EE000FF920F931F93CF93DF93CDB7DEB7619728
:101EF0000FB6F894DEBF0FBECDBFFC01E62E942EC8
:101F0000B22ECF2ECC1CCC24CC1CFC2C19F0F1957D
:101F1000E195F109992009F485C0D12C8E010F5F5C
:101F20001F4F01C0D92E6AE070E0CF010E947011EE
:101F3000262FE22FF72F91E09D0DD801AD0DB11D99
:101F4000805D8C939911EECFAA24A394A90CD8019B
:101F5000A90DB11D8EE28C9301C0AD2C6AE070E03A
:101F6000CF010E947011262FE22FF72FDD24D3948A
:101F7000DA0CD801AA0DB11D805D8C93309769F7FA
:101F80008D2DBB2051F1E11052C0FF2031F0F8013E
:101F9000ED0DF11D8DE28083D394DA94F801ED0DFF
:101FA000F11D608181E00E94290D85ED8A95F1F790
:101FB0000000D110F2CF61960FB6F894DEBF0FBECD
:101FC000CDBFDF91CF911F910F91FF90EF90DF90E8
:101FD000CF90BF90AF909F900895CC2041F052E0F9
:101FE000D52EDA0CF801E80FF11D8DE28083EE208A
:101FF000A1F220E030E0F12C40E28D2D90E06E2D3A
:1020000070E0621B730B861797070CF0BECFD3945A
:10201000F801E80FF91F40838D2D90E08617970790
:10202000B4F3B3CFA12C8E010F5F1F4F97CF2C2D90
:1020300030E040E3E2CF0E9423010E94390C0E946D
:10204000F8000E94090C0E945C0E0E94090E0E947A
:102050003604129A1A9A1F98179A1A9A8FE193E0E7
:102060000197F1F700C000001A9890EA9A95F1F7ED
:1020700017981092C60141E066EC71E080E90E9479
:10208000E70B7894C8EED1E001E015E041E2E42EE0
:102090005CE0F52E80915901811138C08091580182
:1020A000811155C080915A01882309F45AC02091AA
:1020B00005013091060180910701909108012817D0
:1020C0003907E9F01093E5012FEF83ED90E32150FC
:1020D00080409040E1F700C000000E94E30B8111B6
:1020E000FCCF0E94A0098091070190910801909374
:1020F00006018093050180915A01882391F10E9485
:10210000E30B8111FCCF0E943F0A2BC00E94E30B1E
:102110008111FCCF0E94D30A00935A010E94E30B65
:102120008111FCCF1093E5010E94A0098091070165
:102130009091080190930601809305011092590136
:1021400000935A0180915801882309F4ABCF0E9473
:10215000E30B8111FCCF0E94050A109258011092E6
:102160005A018091610185FF58C080915A018823EE
:1021700009F453C0809161018F7D809361011093B8
:10218000E5010E94E30B8111FCCFE092BD01F092CA
:10219000BE0142E06DEB71E082E20E94E70B2FEF9F
:1021A00083ED90E3215080409040E1F700C00000B3
:1021B0000E94E30B8111FCCF82E28093BD0110925B
:1021C000BE0142E06DEB71E00E94E70B8FEA94E004
:1021D0000197F1F700C000000E94E30B8111FCCFD2
:1021E00048E063E372E082E20E94F80B8FEA94E039
:1021F0000197F1F700C000008091350290E0982F20
:10220000882720913602820F911D909308018093B8
:102210000701909306018093050140915F01509161
:1022200060019A01A3E9B1E20E944D110024880FD8
:10223000991F001C880F991F001C892F902D8C9FBF
:1022400090018D9F300D9C9F300D11244217530734
:1022500071F48091610186FF1CC081E00E94520CE4
:102260008091610186FF11C083E40E94120C80916D
:102270009B01882309F40ECF6DE172E08CEA91E0B6
:102280000E94841310929B0105CF86E40E94120CD9
:10229000EECF80E00E94520CE3CFA29FB001B39F2B
:1022A000C001A39F700D811D1124911DB29F700D5F
:1022B000811D1124911D0895AA1BBB1B51E107C06C
:1022C000AA1FBB1FA617B70710F0A61BB70B881FC6
:1022D000991F5A95A9F780959095BC01CD01089555
:1022E00097FB072E16F4009407D077FD09D00E94C3
:1022F0005C1107FC05D03EF4909581959F4F0895A1
:10230000709561957F4F0895052E97FB1EF40094FC
:102310000E949B1157FD07D00E94A91107FC03D012
:102320004EF40C949B1150954095309521953F4F5C
:102330004F4F5F4F089590958095709561957F4FB1
:102340008F4F9F4F0895EE0FFF1F0590F491E02DE2
:102350000994A1E21A2EAA1BBB1BFD010DC0AA1FE6
:10236000BB1FEE1FFF1FA217B307E407F50720F0FE
:10237000A21BB30BE40BF50B661F771F881F991F79
:102380001A9469F760957095809590959B01AC01C2
:10239000BD01CF0108955058BB27AA270ED008C110
:1023A000F9D030F0FED020F031F49F3F11F41EF44C
:1023B000EEC00EF4E095E7FBE4C0E92F0AD180F30C
:1023C000BA17620773078407950718F071F49EF532
:1023D00022C10EF4E0950B2EBA2FA02D0B01B901EE
:1023E00090010C01CA01A0011124FF27591B99F08B
:1023F000593F50F4503E68F11A16F040A22F232F97
:10240000342F4427585FF3CF469537952795A795E6
:10241000F0405395C9F77EF41F16BA0B620B730B8D
:10242000840BBAF09150A1F0FF0FBB1F661F771FFE
:10243000881FC2F70EC0BA0F621F731F841F48F4B3
:10244000879577956795B795F7959E3F08F0B3CF39
:102450009395880F08F09927EE0F97958795089523
:102460006CD008F481E00895BCD088F09F5790F0BC
:10247000B92F9927B751A0F0D1F0660F771F881FA9
:10248000991F1AF0BA95C9F712C0B13081F0C3D0C4
:10249000B1E00895C0C0672F782F8827B85F39F062
:1024A000B93FCCF3869577956795B395D9F73EF408
:1024B00090958095709561957F4F8F4F9F4F0895B0
:1024C000E89409C097FB3EF49095809570956195CE
:1024D0007F4F8F4F9F4F9923A9F0F92F96E9BB2784
:1024E0009395F695879577956795B795F111F8CF00
:1024F000FAF4BB0F11F460FF1BC06F5F7F4F8F4F6B
:102500009F4F16C0882311F096E911C0772321F060
:102510009EE8872F762F05C0662371F096E8862FF8
:1025200070E060E02AF09A95660F771F881FDAF74F
:10253000880F9695879597F90895990F0008550F7C
:10254000AA0BE0E8FEEF16161706E807F907C0F039
:1025500012161306E407F50798F0621B730B840B41
:10256000950B39F40A2661F0232B242B252B21F41B
:1025700008950A2609F4A140A6958FEF811D811DBB
:10258000089597F99F6780E870E060E008959FEFF5
:1025900080EC089500240A941616170618060906FA
:1025A000089500240A9412161306140605060895C9
:1025B000092E0394000C11F4882352F0BB0F40F451
:1025C000BF2B11F460FF04C06F5F7F4F8F4F9F4F91
:1025D000089557FD9058440F551F59F05F3F71F013
:1025E0004795880F97FB991F61F09F3F79F087957A
:1025F0000895121613061406551FF2CF4695F1DF03
:1026000008C0161617061806991FF1CF8695710592
:10261000610508940895E894BB2766277727CB01C6
:1026200097F908958ADF08F48FEF08950BD0C0CF93
:10263000B1DF28F0B6DF18F0952309F0A2CFA7CFBD
:102640001124EACFC6DFA0F3959FD1F3950F50E098
:10265000551F629FF001729FBB27F00DB11D639F54
:10266000AA27F00DB11DAA1F649F6627B00DA11DFA
:10267000661F829F2227B00DA11D621F739FB00DA0
:10268000A11D621F839FA00D611D221F749F332710
:10269000A00D611D231F849F600D211D822F762FA9
:1026A0006A2F11249F5750408AF0E1F088234AF0A6
:1026B000EE0FFF1FBB1F661F771F881F91505040F2
:1026C000A9F79E3F510570F05CCFA6CF5F3FECF3BA
:1026D000983EDCF3869577956795B795F795E795DE
:1026E0009F5FC1F7FE2B880F911D9695879597F9EF
:1026F0000895FB01DC010D900020E9F7119701908E
:102700000D920020E1F70895FB01DC0101900D928C
:102710000020E1F70895FB019F01E8944230C4F0E6
:102720004532B4F44A3029F497FB1EF49095819514
:102730009F4F642F77270E945C11805D8A330CF0D5
:10274000895D8193CB010097A1F716F45DE2519367
:102750001082C9010C94CC13E199FECF9FBB8EBBB4
:10276000E09A99278DB30895A8E1B0E042E050E0E7
:102770000C94DE13262FE199FECF9FBB8EBB2DBBA1
:102780000FB6F894E29AE19A0FBE019608950E945E
:10279000BA13272F0C94BB13DC01FC01672F719136
:1027A0007723E1F7329704C07C916D937083629137
:1027B000AE17BF07C8F30895DC01CB01FC01E19916
:1027C000FECF06C0FFBBEEBBE09A31960DB20D9274
:0C27D00041505040B8F70895F894FFCF36
:1027DC00010303C0A88228822801C0A840792430B4
:1027EC0019120278001800C0F9A4B0999282F880EE
:1027FC009800414C41524D2000414C41524D204FCC
:10280C00464620202000414C41524D204F46462048
:10281C0020202020202000202020202020202020CC
:08282C002020202020202000C4
:00000001FF
