:100000000C946B000C94C9030C94A2030C94930001
:100010000C9493000C9493000C9493000C94930014
:100020000C9493000C9493000C9493000C94930004
:100030000C9493000C9493000C94F0030C94930094
:100040000C9458030C9493000C9493000C9493001C
:100050000C9493000C9493000C9493000C949300D4
:100060000C9493000C94930089068E0693069806D0
:100070009D06A206A706AC06B106000000002400FB
:1000800027002A0000000000250028002B000000A7
:1000900000002300260029000404040404040404CE
:1000A0000202020202020303030303030102040823
:1000B00010204080010204081020010204081020D2
:1000C0000000000800020100000304070000000017
:1000D00000000000480A11241FBECFEFD8E0DEBFA9
:1000E000CDBF11E0A0E0B1E0E4E9FAE102C0059083
:1000F0000D92A430B107D9F721E0A4E0B1E001C02E
:100100001D92A13AB207E1F710E0CBE6D0E004C0BF
:100110002197FE010E94420DCA36D107C9F70E94FD
:10012000BB060C94480D0C940000833081F028F439
:10013000813099F08230A1F008958730A9F088309D
:10014000B9F08430D1F4809180008F7D03C080911C
:1001500080008F7780938000089584B58F7702C0E8
:1001600084B58F7D84BD08958091B0008F7703C0E2
:100170008091B0008F7D8093B0000895CF93DF937E
:10018000282F30E0F901E054FF4F8491F901E45544
:10019000FF4FD491F901E856FF4FC491CC2391F061
:1001A00081110E949500EC2FF0E0EE0FFF1FE25747
:1001B000FF4FA591B491EC91ED2381E090E021F403
:1001C00080E002C080E090E0DF91CF9108951F931E
:1001D000CF93DF93282F30E0F901E054FF4F849153
:1001E000F901E455FF4FD491F901E856FF4FC4914E
:1001F000CC23C9F0162F81110E949500EC2FF0E05E
:10020000EE0FFF1FEC57FF4FA591B4918FB7F894F5
:10021000111105C09C91ED2FE095E92302C0EC91EE
:10022000ED2BEC938FBFDF91CF911F910895CF936A
:10023000DF9390E0FC01E455FF4F2491FC01E85668
:10024000FF4F8491882361F190E0880F991FFC0192
:10025000E658FF4FC591D491FC01EC57FF4FA59193
:10026000B491611109C09FB7F894888120958223C9
:100270008883EC912E230BC0623061F49FB7F89411
:100280003881822F809583238883EC912E2B2C93A9
:100290009FBF06C08FB7F894E8812E2B28838FBFAD
:1002A000DF91CF9108951F93CF93DF93182FEB0128
:1002B00061E00E941701209711F460E004C0CF3F75
:1002C000D10539F461E0812FDF91CF911F910C941A
:1002D000E700E12FF0E0E054FF4FE491E330F9F064
:1002E00048F4E130B9F0E230A1F584B5806284BD14
:1002F000C8BD34C0E730E9F0E83019F1E43049F521
:1003000080918000806280938000D0938B00C093A6
:100310008A0024C084B5806884BDC7BD1FC0809199
:100320008000806880938000D0938900C09388000B
:1003300015C08091B00080688093B000C093B30076
:100340000DC08091B00080628093B000C093B40073
:1003500005C0C038D1050CF0B5CFAFCFDF91CF913C
:100360001F9108953FB7F89480911E0190911F014D
:10037000A0912001B091210126B5A89B05C02F3F77
:1003800019F00196A11DB11D3FBFBA2FA92F982FBB
:100390008827820F911DA11DB11DBC01CD0142E036
:1003A000660F771F881F991F4A95D1F70895089502
:1003B000CF93DF93EC0161E089810E94E700EB813C
:1003C000FC81E230F10538F0EE0FFF1FEE0FFF1F4A
:1003D00035973197F1F760E08981DF91CF910C94E7
:1003E000E700CF93DF93EC016A8388818823A1F033
:1003F000262F30E0A8EEB3E00E94F50A24EB30E0AF
:1004000040E050E00E94B40ADA01C901805E9C4FCE
:10041000AF4FBF4F9C838B83DF91CF9108952F9275
:100420003F924F925F926F927F928F929F92AF9284
:10043000BF92CF92DF92EF92FF920F931F93CF93D1
:10044000DF9300D000D0CDB7DEB71C012A013B01FD
:100450004801590120E030E0A901C301B2010E9426
:10046000710B87FD78C020E030E0A901C501B4011F
:100470000E94710B87FD6FC020E030E0A901C70129
:10048000B6010E94710B87FD66C0F1014082518266
:100490006282738284829582A682B782C086D18668
:1004A000E286F38664A575A586A597A50E941E0C15
:1004B00020E030E04AE754E40E94760B69837A83B7
:1004C0008B839C83F10144865586668677869B01E3
:1004D000AC01C501B4010E94D50C4B015C01F101D6
:1004E000608B718B828B938B29813A814B815C81EC
:1004F000C701B6010E94760B6B017C01F101648B90
:10050000758B868B978B808D918D019721F5A3013B
:10051000920160E070E0CB010E94040BF10164875E
:10052000758786879787A501940160E070E0CB010D
:100530000E94040BF101608B718B828B938BA7015E
:10054000960160E070E0CB010E94040BF101648B26
:10055000758B868B978B0F900F900F900F90DF917C
:10056000CF911F910F91FF90EF90DF90CF90BF90B0
:10057000AF909F908F907F906F905F904F903F9043
:100580002F900895CF92DF92EF92FF920F931F93D7
:10059000CF93DF93EC0197FF04C0CC27DD27C81B66
:1005A000D90B1816190624F481E08093060104C0C3
:1005B000892B11F01092060188ECE82EF12C03EC47
:1005C00010E09BEDC92E9EE2D92E209709F43CC085
:1005D000209106018091040190910501213049F498
:1005E0000196883C910581F4109205011092040156
:1005F0000FC0892B21F4F0920501E0920401809153
:1006000004019091050101979093050180930401E5
:100610002197213011F460E001C061E08FE00E9479
:10062000E70061E08EE00E94E70061E080E10E9467
:10063000E700C8010197F1F760E080E10E94E70060
:10064000C6010197F1F7C1CFDF91CF911F910F91B3
:10065000FF90EF90DF90CF90089588E00E94BE0059
:10066000019779F460912201709123018091240116
:10067000909125012AE037ED43E25CE30E94050BEF
:100680000EC060912201709123018091240190910C
:1006900025012AE037ED43E25CE30E94040B6093FE
:1006A00022017093230180932401909325010895E2
:1006B0001F920F920FB60F9211242F933F938F9397
:1006C0009F93AF93BF9380911A0190911B01A091CA
:1006D0001C01B0911D013091190123E0230F2D372A
:1006E00020F40196A11DB11D05C026E8230F029636
:1006F000A11DB11D2093190180931A0190931B0134
:10070000A0931C01B0931D0180911E0190911F01C7
:10071000A0912001B09121010196A11DB11D8093EE
:100720001E0190931F01A0932001B0932101BF915E
:10073000AF919F918F913F912F910F900FBE0F908E
:100740001F9018951F920F920FB60F9211242F939E
:100750003F934F935F936F937F938F939F93AF9349
:10076000BF93EF93FF93E0910201F091030109958C
:10077000FF91EF91BF91AF919F918F917F916F9179
:100780005F914F913F912F910F900FBE0F901F904F
:1007900018951F920F920FB60F9211242F933F932B
:1007A0004F935F936F937F938F939F93AF93BF9379
:1007B000EF93FF93E0910001F09101010995FF9102
:1007C000EF91BF91AF919F918F917F916F915F91C9
:1007D0004F913F912F910F900FBE0F901F90189542
:1007E0001F920F920FB60F9211242F923F924F92A9
:1007F0005F926F927F928F929F92AF92BF92CF92B1
:10080000DF92EF92FF920F931F932F933F934F939B
:100810005F936F937F938F939F93AF93BF93EF9368
:10082000FF93CF93DF93CDB7DEB72897DEBFCDBF61
:100830008CE00E94BE00892B31F481E090E090931F
:1008400082018093810180910B0190910C010296AD
:1008500090930C0180930B0180910B0190910C01FE
:10086000449764F010920C0110920B018AE991E018
:100870000E94D80185E991E00E94D8018091910100
:1008800090919201892B31F081E090E0909390015A
:1008900080938F0180918F0190919001892B71F449
:1008A0008091890190918A01892B31F18091850194
:1008B00090918601892B09F002C21EC085E00E943A
:1008C000BE00892B69F41092900110928F01109252
:1008D00022011092230110922401109225010CC0D4
:1008E00080E090E0A8ECB2EC80930D0190930E01B3
:1008F000A0930F01B09310012091220130912301A8
:100900004091240150912501209315013093160147
:10091000409317015093180180900D0190900E01A3
:10092000A0900F01B0901001C501B4010E94040B0A
:100930006B017C0120E030E0A9010E94D00C181668
:1009400024F0F7FAF094F7F8F094C0920701D092EF
:100950000801E0920901F0920A012DEC3CEC4CE414
:100960005EE3C701B6010E94710B87FFFFC1809152
:10097000850190918601892B09F4F8C120E030E0CF
:1009800048EC52ECC501B4010E94710B882309F4B4
:10099000EDC181E090E0909388018093870120E091
:1009A00030E040EA51E4C701B6010E94710B87FFB5
:1009B00011C09AE0C92E97EDD92E93E2E92E9CE35F
:1009C000F92E00E010E42CE935E440E050E06AEF55
:1009D00073E410C08DECC82E8CECD82E8CE4E82E7D
:1009E0008DE3F82E00E010E42CE136E440E050E422
:1009F0006CE975E486E291E00E940F0280915E014D
:100A0000882309F412C18FB7F89420911A0130910C
:100A10001B0140911C0150911D012D833E834F838A
:100A200058878FBF8091460190914701A09148015E
:100A3000B09149014D815E816F817885481B590BCA
:100A40006A0B7B0B8091520190915301A09154014C
:100A5000B0915501481759076A077B0708F4E5C0AC
:100A6000E0914001F0914101C080D180E280F380AB
:100A7000E0914401F0914501A701960160817181E7
:100A8000828193810E94040B2B013C01209136014D
:100A90003091370140913801509139010E94D50CB5
:100AA00020914A0130914B0140914C0150914D01F0
:100AB0000E94050B4B015C0160934A0170934B014E
:100AC00080934C0190934D0110915A0120905B014D
:100AD00030905C0100915D01212F322D432D502F6C
:100AE0000E94D00C18166CF4812F922DA32DB02FDC
:100AF00080934A0190934B01A0934C01B0934D0118
:100B000020C08091560190915701A0915801B09159
:100B1000590189839A83AB83BC839C01AD01C501D4
:100B2000B4010E94710B87FF0CC029813A814B816F
:100B30005C8120934A0130934B0140934C015093C8
:100B40004D01209132013091330140913401509197
:100B50003501C301B2010E94D50C20914A013091A8
:100B60004B0140914C0150914D010E94050B4B01EE
:100B70005C0120914E0130914F0140915001509104
:100B80005101C701B6010E94040B20913A01309136
:100B90003B0140913C0150913D010E94D50C9B01CD
:100BA000AC01C501B4010E94040B4B015C01212F73
:100BB000322D432D502F0E94D00C1816B4F01091F6
:100BC0005601209057013090580100915901212F72
:100BD000322D432D502FB401C5010E94710B87FDAA
:100BE00004C0182D292C3A2C0B2DE0914201F091D4
:100BF0004301812F922DA32DB02F80839183A28357
:100C0000B383C0924E01D0924F01E0925001F09216
:100C100051018D819E81AF81B8858093460190936B
:100C20004701A0934801B09349016091110170916F
:100C3000120180911301909114010E94E80B6B0145
:100C40007C011616170634F489E00E94530160E017
:100C500070E009C060E070E089E00E9453016627FF
:100C600077276C197D098AE00E94530128960FB6F8
:100C7000F894DEBF0FBECDBFDF91CF91FF91EF9112
:100C8000BF91AF919F918F917F916F915F914F91A4
:100C90003F912F911F910F91FF90EF90DF90CF9098
:100CA000BF90AF909F908F907F906F905F904F908C
:100CB0003F902F900F900FBE0F901F90189510929D
:100CC0007E0110927D01E3E7F1E089E090E032914E
:100CD00022912130310529F490937E0180937D018A
:100CE00002C00197A0F7E0917D01F0917E0130975D
:100CF00039F481E090E09093920180939101FCCDD2
:100D00003197E930F10508F0F7CDEC5CFF4F0C941A
:100D1000420D80E090E0A0ECB0E4E6CD80E090E011
:100D2000A0E4B1E4E1CD80E090E0A0EBB1E4DCCD63
:100D300080E090E0A0E0B2E4D7CD80E090E0A0E2D7
:100D4000B2E4D2CD80E090E0A8E4B2E4CDCD80E082
:100D500090E0A0E6B2E4C8CD80E090E0A2E8B2E482
:100D6000C3CD80E090E0A2E9B2E4BECD109288014C
:100D70001092870114CE789484B5826084BD84B5C6
:100D8000816084BD85B5826085BD85B5816085BD86
:100D900080916E00816080936E001092810080913E
:100DA00081008260809381008091810081608093C6
:100DB0008100809180008160809380008091B100EB
:100DC00084608093B1008091B00081608093B00016
:100DD00080917A00846080937A0080917A008260AA
:100DE00080937A0080917A00816080937A0080916C
:100DF0007A00806880937A001092C10061E089E0F7
:100E00000E94170161E08AE00E94170161E08EE014
:100E10000E94170161E08FE00E94170161E080E10C
:100E20000E94170161E08BE00E94170161E086E0FB
:100E30000E94170162E082E00E94170162E088E0F0
:100E40000E94170162E087E00E94170162E08DE0D6
:100E50000E94170162E085E00E94170162E08CE0C9
:100E60000E94170162E084E00E94170160E083E1C4
:100E70000E94170160E08DE00E94E7008BE0809304
:100E80009B01DAE5D0939C01C1E0C0939A0161E037
:100E90000E94170186E080939601D0939701C0933A
:100EA000950161E00E9417018DE293E090930101AA
:100EB00080930001809169008C7F8260809369003B
:100EC000E89A80918100887F8160809381008FEA19
:100ED00087BD80916E00826080936E0080915E017C
:100EE000C0914201D0914301811144C0C880D98092
:100EF000EA80FB80C0924A01D0924B01E0924C0103
:100F0000F0924D01E0914001F09141018081918189
:100F1000A281B38180934E0190934F01A093500121
:100F2000B093510180905A0190905B01A0905C01B8
:100F3000B0905D01A5019401C701B6010E94D00CDB
:100F4000181684F08090560190905701A090580197
:100F5000B0905901A5019401C701B6010E94710B1F
:100F600087FF08C080924A0190924B01A0924C01E9
:100F7000B0924D0181E080935E01609152017091C9
:100F8000530180915401909155010E941E0C9B01C8
:100F9000AC0160E070E080E89FE30E94760B6B019B
:100FA0007C019B01AC016091360170913701809109
:100FB0003801909139010E94D50C609336017093ED
:100FC00037018093380190933901A7019601609110
:100FD0003A0170913B0180913C0190913D010E944A
:100FE000760B60933A0170933B0180933C019093A0
:100FF0003D0181E090E0A0E0B0E080935201909349
:101000005301A0935401B0935501C12CD12C5FE73B
:10101000E52E53ECF52EC0925601D0925701E09286
:101020005801F0925901412C512C6FE7662E63E470
:10103000762E40925A0150925B0160925C01709250
:101040005D0188809980AA80BB80A3019201C501BF
:10105000B4010E94D00C18162CF4488259826A827E
:101060007B820EC020E030E04FE753ECC501B401B5
:101070000E94710B87FF04C0C882D982EA82FB827A
:1010800080904A0190904B01A0904C01B0904D018E
:10109000C0905A01D0905B01E0905C01F0905D013E
:1010A000A7019601C501B4010E94D00C181684F066
:1010B000C0905601D0905701E0905801F09059012E
:1010C000A7019601C501B4010E94710B87FF08C0FA
:1010D000C0924A01D0924B01E0924C01F0924D0136
:1010E00084E00E94BE001092600110925F01892B83
:1010F00039F581E090E09093620180936101109254
:1011000064011092630190936601809365011092CF
:1011100068011092670190936A01809369011092AF
:101120006C0110926B0190936E0180936D0110928F
:10113000700110926F01909372018093710126C02B
:10114000109262011092610181E090E0909364013D
:10115000809363011092660110926501909368017B
:101160008093670110926A011092690190936C015B
:1011700080936B0110926E0110926D01909370013B
:1011800080936F01109272011092710110922201EE
:101190001092230110922401109225011092A001B7
:1011A00010929F0120E0C22E20E0D22E33E0232EA9
:1011B000312C05E010E042E0E42EF12CC0919F01BB
:1011C000D091A001C230D10509F46CC03CF4209745
:1011D00089F0C130D10509F444C01AC1C530D10528
:1011E00009F48CC0C630D10509F4C1C0239709F0B9
:1011F0000FC169C06AE58AE991E00E94F10160E0EF
:1012000085E991E00E94F10183E10E94BE00892BF3
:1012100021F4109294011092930183E10E94BE0088
:101220008130910509F008C120919301309194011A
:10123000232B09F001C12091910130919201232BC0
:1012400009F0FAC020918F0130919001232B09F011
:10125000F3C020918D0130918E01232B09F0E7C05E
:10126000EBC066EE85E991E00E94F1018091890171
:1012700090918A01892B41F484E690E00E94C20299
:10128000D0938A01C0938901809187019091880150
:10129000892B09F05EC081E090E0909386018093F5
:1012A0008501C5C087E00E94BE00892B49F41092D9
:1012B00084011092830130928C0120928B01A8C08E
:1012C00081E090E09FC08091810190918201892B03
:1012D00031F08CE00E94BE00892B09F4CDC0109241
:1012E000820110928101E0917D01F0917E01EE0F6B
:1012F000FF1FE15AFE4F1182108234C0809183019A
:1013000090918401892B51F48CE99FEF0E94C202D5
:1013100081E090E0909384018093830180917F012C
:1013200090918001892B31F48091910190919201EB
:10133000892B19F086E090E07AC081E090E09093EC
:101340008601809385018091870190918801892B86
:1013500049F01092860110928501F0928C01E09282
:101360008B0156C010938C0100938B0151C08DE00E
:101370000E94BE00892B09F043C060E085E991E03E
:101380000E94F1010E94B2014B015C0188EC482EE1
:10139000512C612C712C0E94B201DC01CB01881907
:1013A0009909AA09BB09883E9340A105B10558F0E7
:1013B00091E0491A51086108710828EE820E23E075
:1013C000921EA11CB11C411451046104710419F74F
:1013D0006AE58AE991E00E94F10181E090E0909352
:1013E0008E0180938D0110928A0110928901909351
:1013F00094018093930110928C0110928B0108C08C
:101400008FEF9FEF0E94C202D0938C01C0938B019B
:1014100080918B0190918C019093A00180939F010A
:10142000C114D10409F4CACE0E940000C7CE909323
:101430008C0180938B01ECCF85E00E94BE00892B4C
:1014400031F081E090E09093900180938F018DE0E6
:101450000E94BE00892B29F08FEF9FEF0E94C202ED
:10146000CACF81E090E090938E0180938D0110921D
:101470008A0110928901BFCF81E090E090938001B2
:1014800080937F016AE18AE991E00E94F10127CF10
:10149000CF92DF92EF92FF920F931F93CF93DF9340
:1014A000C6E2D1E081E191E09D8F8C8F85E191E0F2
:1014B0009B8F8A8F8DE091E09F8F8E8F18AE18AA38
:1014C00019AA1AAA1BAA80E090E0AFE7B3E48CAB9C
:1014D0009DABAEABBFAB84E690E0A0E0B0E08CA7E4
:1014E0009DA7AEA7BFA7198E188E8AE0C82E87EDDC
:1014F000D82E83E2E82E8CE3F82E00E010E42CE9ED
:1015000035E440E050E06AEF73E4CE010E940F0240
:101510002FB7F89480911A0190911B01A0911C01A2
:10152000B0911D012FBF4CA55DA56EA57FA5841BA5
:10153000950BA60BB70B88A399A3AAA3BBA3EAE9B3
:10154000F1E010829FEF91838AE58283E5E9F1E083
:10155000108291838283DF91CF911F910F91FF9031
:10156000EF90DF90CF900895052E97FB1EF4009426
:101570000E94CB0A57FD07D00E94D30A07FC03D074
:101580004EF40C94CB0A50954095309521953F4FE1
:101590004F4F5F4F089590958095709561957F4F5F
:1015A0008F4F9F4F0895A1E21A2EAA1BBB1BFD016E
:1015B0000DC0AA1FBB1FEE1FFF1FA217B307E40732
:1015C000F50720F0A21BB30BE40BF50B661F771F8A
:1015D000881F991F1A9469F760957095809590956A
:1015E0009B01AC01BD01CF010895A29FB001B39F43
:1015F000C001A39F700D811D1124911DB29F700D1C
:10160000811D1124911D08955058BB27AA270E94BF
:101610001C0B0C94960C0E94880C38F00E948F0CC6
:1016200020F039F49F3F19F426F40C94850C0EF445
:10163000E095E7FB0C947F0CE92F0E94A70C58F370
:10164000BA17620773078407950720F079F4A6F5A7
:101650000C94C90C0EF4E0950B2EBA2FA02D0B01A3
:10166000B90190010C01CA01A0011124FF27591BE7
:1016700099F0593F50F4503E68F11A16F040A22FED
:10168000232F342F4427585FF3CF4695379527955E
:10169000A795F0405395C9F77EF41F16BA0B620B5D
:1016A000730B840BBAF09150A1F0FF0FBB1F661FA4
:1016B000771F881FC2F70EC0BA0F621F731F841FE7
:1016C00048F4879577956795B795F7959E3F08F00D
:1016D000B0CF9395880F08F09927EE0F97958795CF
:1016E00008950E945B0C08F481E008950E948A0B23
:1016F0000C94960C0E948F0C58F00E94880C40F0BD
:1017000029F45F3F29F00C947F0C51110C94CA0C02
:101710000C94850C0E94A70C68F39923B1F3552310
:1017200091F3951B550BBB27AA27621773078407F4
:1017300038F09F5F5F4F220F331F441FAA1FA9F38A
:1017400035D00E2E3AF0E0E832D091505040E69578
:10175000001CCAF72BD0FE2F29D0660F771F881FD9
:10176000BB1F261737074807AB07B0E809F0BB0BCC
:10177000802DBF01FF2793585F4F3AF09E3F5105E0
:1017800078F00C947F0C0C94CA0C5F3FE4F3983E05
:10179000D4F3869577956795B795F7959F5FC9F7C9
:1017A000880F911D9695879597F90895E1E0660F4A
:1017B000771F881FBB1F621773078407BA0720F0C3
:1017C000621B730B840BBA0BEE1F88F7E09508952C
:1017D0000E94EF0B6894B1110C94CA0C08950E94FA
:1017E000AF0C88F09F5798F0B92F9927B751B0F0F8
:1017F000E1F0660F771F881F991F1AF0BA95C9F795
:1018000014C0B13091F00E94C90CB1E008950C945D
:10181000C90C672F782F8827B85F39F0B93FCCF310
:10182000869577956795B395D9F73EF49095809511
:10183000709561957F4F8F4F9F4F0895E89409C031
:1018400097FB3EF490958095709561957F4F8F4FF3
:101850009F4F9923A9F0F92F96E9BB279395F69509
:10186000879577956795B795F111F8CFFAF4BB0F87
:1018700011F460FF1BC06F5F7F4F8F4F9F4F16C0EB
:10188000882311F096E911C0772321F09EE8872F75
:10189000762F05C0662371F096E8862F70E060E031
:1018A0002AF09A95660F771F881FDAF7880F9695AA
:1018B000879597F90895990F0008550FAA0BE0E84E
:1018C000FEEF16161706E807F907C0F01216130602
:1018D000E407F50798F0621B730B840B950B39F442
:1018E0000A2661F0232B242B252B21F408950A26A8
:1018F00009F4A140A6958FEF811D811D089597F9E8
:101900009F6780E870E060E008959FEF80EC0895A5
:1019100000240A94161617061806090608950024CE
:101920000A9412161306140605060895092E039448
:10193000000C11F4882352F0BB0F40F4BF2B11F4BC
:1019400060FF04C06F5F7F4F8F4F9F4F089557FD1B
:101950009058440F551F59F05F3F71F04795880F1D
:1019600097FB991F61F09F3F79F0879508951216B4
:1019700013061406551FF2CF4695F1DF08C0161660
:1019800017061806991FF1CF869571056105089411
:101990000895E894BB2766277727CB0197F9089528
:1019A0000E945B0C08F48FEF08950E94E80C0C94E1
:1019B000960C0E94880C38F00E948F0C20F0952322
:1019C00011F00C947F0C0C94850C11240C94CA0C0F
:1019D0000E94A70C70F3959FC1F3950F50E0551F1F
:1019E000629FF001729FBB27F00DB11D639FAA2774
:1019F000F00DB11DAA1F649F6627B00DA11D661FC3
:101A0000829F2227B00DA11D621F739FB00DA11DE3
:101A1000621F839FA00D611D221F749F3327A00D9D
:101A2000611D231F849F600D211D822F762F6A2F39
:101A300011249F5750409AF0F1F088234AF0EE0F9E
:101A4000FF1FBB1F661F771F881F91505040A9F7CB
:101A50009E3F510580F00C947F0C0C94CA0C5F3FA4
:101A6000E4F3983ED4F3869577956795B795F79507
:101A7000E7959F5FC1F7FE2B880F911D969587957F
:101A800097F90895EE0FFF1F0590F491E02D09944A
:041A9000F894FFCFF8
:041A9400D701D7019E
:107E0000112484B714BE81FFF0D085E080938100F7
:107E100082E08093C00088E18093C10086E0809377
:107E2000C20080E18093C4008EE0C9D0259A86E02C
:107E300020E33CEF91E0309385002093840096BBD3
:107E4000B09BFECF1D9AA8958150A9F7CC24DD24C4
:107E500088248394B5E0AB2EA1E19A2EF3E0BF2EE7
:107E6000A2D0813461F49FD0082FAFD0023811F036
:107E7000013811F484E001C083E08DD089C08234E0
:107E800011F484E103C0853419F485E0A6D080C0E4
:107E9000853579F488D0E82EFF2485D0082F10E0AE
:107EA000102F00270E291F29000F111F8ED06801E7
:107EB0006FC0863521F484E090D080E0DECF843638
:107EC00009F040C070D06FD0082F6DD080E0C81688
:107ED00080E7D80618F4F601B7BEE895C0E0D1E017
:107EE00062D089930C17E1F7F0E0CF16F0E7DF06D8
:107EF00018F0F601B7BEE89568D007B600FCFDCFD4
:107F0000A601A0E0B1E02C9130E011968C91119780
:107F100090E0982F8827822B932B1296FA010C0160
:107F200087BEE89511244E5F5F4FF1E0A038BF0790
:107F300051F7F601A7BEE89507B600FCFDCF97BE46
:107F4000E89526C08437B1F42ED02DD0F82E2BD052
:107F50003CD0F601EF2C8F010F5F1F4F84911BD097
:107F6000EA94F801C1F70894C11CD11CFA94CF0C13
:107F7000D11C0EC0853739F428D08EE10CD085E9AC
:107F80000AD08FE07ACF813511F488E018D01DD067
:107F900080E101D065CF982F8091C00085FFFCCF94
:107FA0009093C60008958091C00087FFFCCF809118
:107FB000C00084FD01C0A8958091C6000895E0E648
:107FC000F0E098E1908380830895EDDF803219F02E
:107FD00088E0F5DFFFCF84E1DECF1F93182FE3DFCA
:107FE0001150E9F7F2DF1F91089580E0E8DFEE27F6
:047FF000FF270994CA
:027FFE00040479
:0400000300007E007B
:00000001FF
