:100000000C94FE000C9426010C9426010C942601FD
:100010000C9426010C9426010C9426010C942601C4
:100020000C9426010C94C3080C94970E0C940704AE
:100030000C9426010C9426010C9426010C942601A4
:100040000C9426010C9426010C9426010C94260194
:100050000C9426010C9426010C9426010C9479082A
:100060000C9426010C9426010C9426010C94260174
:100070000C9426010C9426010C9426010C94260164
:100080000C9426010C9426010C9426010C94260154
:100090000C9426010C9426010C9426010C94260144
:1000A0000C9426010C9426010C9426016E03710316
:1000B000600364036A039203920392037503790356
:1000C0007D038303870392038D0341542B464143F1
:1000D000544F52595245534554000A3C2D2000417B
:1000E000542B474150474554434F4E4E000A3C2D38
:1000F000200000000000240027002A002D0030000E
:1001000000000000250028002B002E003100000018
:1001100000002300260029002C002F000404040402
:10012000040304050202020204030202020206069C
:100130000606060604040202020404040802011072
:100140004080401020408040800802040180402010
:100150001002011080102040402000000002000921
:100160000F0000030401000C00000000000000006C
:10017000000000000000000000080B000202020165
:10018000000904000001020200000524001001051E
:10019000240101010424020605240600010705814B
:1001A0000310004009040100020A000000070502D4
:1001B00002400000070583024000000403090441D7
:1001C0006461667275697400466561746865722061
:1001D000333275340012010002000000409A230CF3
:1001E0008000010102030112010002EF0201409AA6
:1001F000230C8000010102030100321211241FBEF2
:10020000CFEFDAE0DEBFCDBF12E0A0E0B1E0E2E880
:10021000F9E202C005900D92AC31B107D9F723E0A5
:10022000ACE1B2E001C01D92AB37B207E1F710E0DC
:10023000CEEFD0E004C02197FE010E94DC12CD3F3A
:10024000D107C9F70E94000F0C94BF140C94000052
:10025000623030F4FC012485261721F0648702C047
:1002600080E0089581E00895EF92FF920F931F932D
:10027000CF93DF93CDB7DEB7C154D1090FB6F89451
:10028000DEBF0FBECDBF8C01FC018585882331F018
:100290006DEE70E082E492E00E944C067801FEE090
:1002A000EF0EF11CF80144815581BE016F5F7F4F55
:1002B000C8010E94C20D892BC9F063E671E0CE012E
:1002C00001960E940F13892B79F066E671E0CE014A
:1002D00001960E940F13892B49F0BE016F5F7F4F7B
:1002E000C7010E941813DECF81E001C080E0CF5B20
:1002F000DF4F0FB6F894DEBF0FBECDBFDF91CF91B9
:100300001F910F91FF90EF900895CF92DF92EF929F
:10031000FF920F931F93CF93DF931F92CDB7DEB75A
:10032000FC01348521E0231B248721E3231B29833F
:100330008C010B541F4FBE016F5F7F4FC8010E949D
:10034000560986E0E82EF12C9CE6C92E91E0D92EC4
:10035000B601C8010E945609882341F0F801848142
:10036000C80ED11CF1E0EF1AF10891F70F90DF9160
:10037000CF911F910F91FF90EF90DF90CF90089554
:1003800008958CBD9DBD0895CF92DF92EF92FF92AC
:10039000CF93DF93EC010E946D08C880D980EA807A
:1003A000FB80DC01CB018C199D09AE09BF0921E05E
:1003B000CC80DD80EE80FF808C159D05AE05BF05ED
:1003C00008F420E0822FDF91CF91FF90EF90DF9033
:1003D000CF9008958F929F92AF92BF92CF92DF926B
:1003E000EF92FF920F931F93CF93DF93CDB7DEB7BA
:1003F0006E970FB6F894DEBF0FBECDBF7C016A01C9
:10040000122F01110BC0DC01ED91FC910284F385E8
:10041000E02D6D8F7E8F09957E8D6D8D80E18983B6
:100420007B836A838C818078912F9F77892B8C8343
:10043000103111F4017001C000E08C8100FB87F9DC
:100440008C83C114D10449F0112339F0412F50E0BD
:10045000B601CE0105960E94F412F701EF59FF4F45
:1004600080818F3F31F480919202909193020E949B
:10047000C1016701BEE5CB0ED11C60E0F6018081B1
:100480000E94F706D70114968D909D90AD90BC9078
:1004900017970E946D086D8B7E8B8F8B988F898E3E
:1004A0009A8EAB8EBC8E80E6A82EB12C6981C701D6
:1004B0000E9491098E3F31F4CE0145960E94C401FD
:1004C000882391F0CE0145960E94C40101E00827DF
:1004D000C9F0412F50E04D5F5F4FBE016E5F7F4F0F
:1004E000C7010E94EF090EC061E0D6018C910E9405
:1004F000F706C5010197F1F760E0F60180810E94DF
:10050000F706D4CF61E0F60180810E94F706802FC4
:100510006E960FB6F894DEBF0FBECDBFDF91CF91C0
:100520001F910F91FF90EF90DF90CF90BF90AF9011
:100530009F908F9008954091300250913102209108
:100540002E0230912F0242175307B4F49091E80025
:100550009570E1F39091E80092FD19C08093F1004D
:10056000809130029091310201968F739927892BE7
:1005700019F48EEF8093E80080913002909131025F
:100580000196909331028093300281E0089580E0DB
:100590000895DF92EF92FF920F931F93CF93DF9313
:1005A000D82E8A017B01E40EF51EEB01CE15DF0586
:1005B00071F0D7FE03C0FE01849101C088810E94C2
:1005C0009B0221968111F2CF8FEF9FEF01C0C801EE
:1005D000DF91CF911F910F91FF90EF90DF900895E1
:1005E000CF92DF92EF92FF920F931F93CF93DF93FF
:1005F0006C017A018B01C0E0D0E0CE15DF0589F0F7
:10060000D8016D918D01D601ED91FC910190F081A1
:10061000E02DC6010995892B11F47E0102C02196B7
:10062000ECCFC701DF91CF911F910F91FF90EF9019
:10063000DF90CF900895CF93DF931F92CDB7DEB7B1
:100640006983DC01ED91FC910280F381E02D41E0B2
:1006500050E0BE016F5F7F4F09950F90DF91CF9102
:10066000089583E08093E9008091F200882319F0D7
:100670008AE38093E8000895FC018485958597FDC1
:100680000BC09FB7F89482E08093E9008091F2005C
:100690009FBF90E0019608959FB7F89482E0809301
:1006A000E9008091F2009FBF90E0089590E0FC0186
:1006B0003197EF30F105B0F5EA5AFF4F0C94DC1298
:1006C000809180008F7703C0809180008F7D809320
:1006D0008000089580918000877FF9CF84B58F775F
:1006E00002C084B58F7D84BD0895809190008F777E
:1006F00007C0809190008F7D03C080919000877F1C
:100700008093900008958091C0008F7703C08091FE
:10071000C0008F7D8093C00008958091C200877FC4
:100720008093C20008950F931F93CF93DF931F927E
:10073000CDB7DEB782E0898342E450E069E771E03B
:1007400080E80E94C9020E94830EDC0112960D917E
:100750001C9113970115110569F0D801ED91FC91D9
:100760000280F381E02DBE016F5F7F4FC8010995C4
:1007700097FF07C089810F90DF91CF911F910F9153
:100780000895F80100851185E5CF0F931F93CF934E
:10079000DF931F92CDB7DEB78C01FC018485958570
:1007A00097FF0EC0CE0101960E945A0E019719F4D0
:1007B000298130E002C02FEF3FEFF8013587248711
:1007C000F801848595850F90DF91CF911F910F914E
:1007D0000895CF93DF931F92CDB7DEB7FC018485D8
:1007E000958597FD05C02FEF3FEF358724870BC018
:1007F000CE0101960E945A0E019719F4898190E06A
:1008000002C08FEF9FEF0F90DF91CF9108951F925D
:100810000F920FB60F921124CF92DF92EF92FF92B8
:100820000F931F932F933F934F935F936F937F93F8
:100830008F939F93AF93BF93EF93FF93CF93DF93E8
:10084000CDB7DEB76C97DEBFCDBF1092E9008091C7
:10085000E80083FFFBC1FE017596DE2ECF2E88E0F7
:100860008E0F8E1729F09091F10090833196F9CF79
:1008700084E68093400282EF8093E8008D8987FFB1
:1008800005C09091E80090FFFCCF03C09EEF9093CD
:10089000E800982F907609F0C5C09E892F89188DA1
:1008A00091110CC0803829F4809132028093F100BC
:1008B00002C01092F1001092F1005DC1422F50E091
:1008C000512B913051F4811156C14130510509F03D
:1008D00052C1809132028D7F0BC0933061F481113F
:1008E0004AC14130510509F046C18091320282600F
:1008F0008093320240C1953041F48091E80080FF3E
:10090000FCCF20682093E30036C1963009F05EC02A
:10091000EB8CFC8C1092E9001092310210923002A4
:10092000123091F510922F0210922E020E94930322
:1009300099E0BE016F5F7F4FDB01E92F1D92EA95C1
:10094000E9F799831A8391E09E8390EA98879AEF5A
:1009500099872091300230913102275F3F4F3C83CD
:100960002B838D831092E900109231021092300295
:10097000F0922F02E0922E0249E050E080E00E94C7
:10098000C9020E949303F7C0F0922F02E0922E0258
:100990000E94830EDC011296ED90FC901397E114F7
:1009A000F10409F4D6C0D701ED91FC910480F581E2
:1009B000E02D6D2D7C2DC7010995009719F00CF0E5
:1009C000DAC0DDC0F701E084F184E9CF973009F4A3
:1009D000D6C0983021F481E08093F100CCC09930EA
:1009E00009F0C9C0837009F0CAC0E3E3F1E081E017
:1009F00021E036E39081992361F08093E900209310
:100A0000EB0091919093EC003093ED008F5F873075
:100A100089F78EE78093EA001092EA008F8980932D
:100A20004102A9C08B8D9C8D1092E9001092310279
:100A30001092300290932F0280932E02898D8111A3
:100A40006EC08E899D89913A59F4813209F097C020
:100A500047E050E064E071E080E00E94C9028BC092
:100A6000913209F08CC0833289F4888D90E0982F00
:100A700088272F89822BA0E0B0E08093000190931B
:100A80000101A0930201B093030175C08032B1F45B
:100A90008091E80082FFFCCFE4E0F1E087E08E0F78
:100AA0008E1729F09091F10090833196F9CF84E66A
:100AB000809340028BEF8093E80006C0823209F0F9
:100AC0005AC08F8980930B01809104019091050198
:100AD000A0910601B0910701803B9440A105B105AA
:100AE00009F09FC080910B0180FD9BC080910008A0
:100AF000909101089093FF0A8093FE0A87E797E799
:100B000090930108809300089BE088E10FB6F89469
:100B1000A895809360000FBE909360002CC00E9447
:100B2000830EDC0112960D911C911397011511058E
:100B300031F1D801ED91FC910190F081E02D6D2D06
:100B40007C2DC8010995811116C0F8010085118519
:100B5000EDCF1130C1F0133091F48F89882309F45F
:100B600055C08230E9F440E86CE088EC91E00E94E6
:100B7000F511882321F08EEF8093E80067C081E2B1
:100B80008093EB0063C08B8D9C8D089711F41093BC
:100B90002D0280912D02811136C065ED71E038C0C3
:100BA000813029F440E868E08FEB91E0E0CF8330BA
:100BB00031F70E94830EDC011296ED90FC901397A2
:100BC0008E010F5F1F4F6801E114F10479F0D70126
:100BD000ED91FC910680F781E02DB801C7010995E0
:100BE000080F111DF701E084F184EECFD8011C92AB
:100BF000F60101900020E9F73197BF016C197D09DA
:100C000040E0C601B4CF67EE71E002C06BEB71E06B
:100C10006115710509F4B3CFFB01449150E080E800
:100C20001CCF0FB6F894A8958091600088618093DE
:100C30006000109260000FBEA8958091FE0A90910E
:100C4000FF0A909301088093000895CF6C960FB629
:100C5000F894DEBF0FBECDBFDF91CF91FF91EF9132
:100C6000BF91AF919F918F917F916F915F914F91C4
:100C70003F912F911F910F91FF90EF90DF90CF90B8
:100C80000F900FBE0F901F901895DC01ED91FC9115
:100C90000190F081E02D0994EF92FF920F931F9342
:100CA000CF93DF938C017B01C0E0D0E0F701EC0F24
:100CB000FD1F6491662361F0D801ED91FC910190D4
:100CC000F081E02DC8010995892B11F02196EECF16
:100CD000CE01DF91CF911F910F91FF90EF9008957A
:100CE0006115710579F0FB0101900020E9F731975A
:100CF000AF01461B570BDC01ED91FC910280F381A3
:100D0000E02D099480E090E008954F925F926F92F9
:100D10007F92EF92FF920F931F93CF93DF93CDB704
:100D2000DEB7A1970FB6F894DEBF0FBECDBF7C0132
:100D3000FA01CB0119A2223008F42AE08E010F5DDE
:100D40001F4F422E512C612C712CBF01A301920127
:100D50000E944C14F901CA01015011096A3014F4BF
:100D6000605D01C0695CD8016C93232B242B252B7B
:100D700061F7B801C7010E947006A1960FB6F894FA
:100D8000DEBF0FBECDBFDF91CF911F910F91FF90BE
:100D9000EF907F906F905F904F900895CF93DF9387
:100DA000282F30E0F901E65AFE4F8491F901E55C05
:100DB000FE4FD491F901E45EFE4FC491CC2391F033
:100DC00081110E945603EC2FF0E0EE0FFF1FE25F4F
:100DD000FE4FA591B491EC91ED2381E090E021F4D8
:100DE00080E002C080E090E0DF91CF9108951F93F2
:100DF000CF93DF93282F30E0F901E65AFE4F84911C
:100E0000F901E55CFE4FD491F901E45EFE4FC49117
:100E1000CC23C9F0162F81110E945603EC2FF0E06D
:100E2000EE0FFF1FE050FF4FA591B4918FB7F894DC
:100E3000111105C09C91ED2FE095E92302C0EC91C2
:100E4000ED2BEC938FBFDF91CF911F910895CF933E
:100E5000DF9390E0FC01E55CFE4F2491FC01E45E31
:100E6000FE4F8491882361F190E0880F991FFC0167
:100E7000EE50FF4FC591D491FC01E050FF4FA5917A
:100E8000B491611109C09FB7F8948881209582239D
:100E90008883EC912E230BC0623061F49FB7F894E5
:100EA0003881822F809583238883EC912E2B2C937D
:100EB0009FBF06C08FB7F894E8812E2B28838FBF81
:100EC000DF91CF9108958F929F92AF92BF92CF9270
:100ED000DF92EF92FF926B017C010E9448084B0168
:100EE0005C01C114D104E104F104F1F00E9448084E
:100EF000DC01CB0188199909AA09BB09883E9340F6
:100F0000A105B10570F321E0C21AD108E108F1088A
:100F100088EE880E83E0981EA11CB11CC114D10478
:100F2000E104F10419F7DDCFFF90EF90DF90CF904F
:100F3000BF90AF909F908F9008958F929F92AF92A5
:100F4000BF92CF92DF92EF92FF920F931F93CF93B6
:100F5000DF935C016B018A0180910B01882309F406
:100F60005DC080914102882309F458C080913E02FF
:100F700080FF05C08091E00082608093E000E8017E
:100F80008AEFF82E93E0E92E2FE3822E3AE3932E98
:100F9000209709F43DC08FB7F894E092E900909152
:100FA000E80095FF06C09091F200282D291B922F92
:100FB00001C090E08FBF91110AC0FA94FF2071F137
:100FC00061E070E080E090E00E946307E1CF292FAC
:100FD00030E0C217D3070CF49C2F8FB7F894E0923F
:100FE000E9002091E80025FF11C0292F30E0C21B45
:100FF000D30BF601915020F041914093F100FACFCC
:10100000C20ED31E9091E80095FF12C08FBFC0CFD3
:1010100084E680933F021016110644F081E090E0D0
:10102000F5019383828380E090E005C0C80103C08E
:101030009092E800EBCFDF91CF911F910F91FF903D
:10104000EF90DF90CF90BF90AF909F908F900895DA
:10105000FC01EB54FF4F178216821186108613860F
:1010600012860895CF93DF93EC0160E08E810E9499
:10107000F70661E08E810E94F70660E08E810E9493
:10108000F70684EC90E00197F1F7DF91CF91089596
:101090003FB7F89480913A0290913B02A0913C02B4
:1010A000B0913D0226B5A89B05C02F3F19F00196CF
:1010B000A11DB11D3FBFBA2FA92F982F8827820FDE
:1010C000911DA11DB11DBC01CD0143E0660F771F2D
:1010D000881F991F4A95D1F708952FB7F89460910A
:1010E00036027091370280913802909139022FBFF9
:1010F00008951F920F920FB60F9211242F933F93D2
:101100008F939F93AF93BF93809136029091370254
:10111000A0913802B09139023091350226E0230FB8
:101120002D3720F40296A11DB11D05C029E8230F1B
:101130000396A11DB11D2093350280933602909332
:101140003702A0933802B093390280913A0290910D
:101150003B02A0913C02B0913D020196A11DB11D40
:1011600080933A0290933B02A0933C02B0933D02DD
:10117000BF91AF919F918F913F912F910F900FBE93
:101180000F901F9018951F920F920FB60F92112477
:101190000F900FBE0F901F901895CF92DF92EF9295
:1011A000FF920F931F93CF93DF937C016C0187E035
:1011B000C80ED11CC0E0D0E0062F10E0B8010C2E04
:1011C00002C0759567950A94E2F76170F601819106
:1011D0006F010E94F7062196C430D10579F7C70147
:1011E000DF91CF911F910F91FF90EF90DF90CF9003
:1011F0000C943208CF92DF92EF92FF920F931F93DD
:10120000CF93DF93EC01F62E642F8C810E94F706BA
:101210008D818F3F19F060E00E94F7068F850F2DBA
:1012200010E084FF25C06E0187E0C80ED11CE12CC0
:10123000F12CB8010E2C02C0759567950A94E2F75F
:101240006170F60181916F010E94F706FFEFEF1ABE
:10125000FF0A88E0E816F10461F7CE01DF91CF9133
:101260001F910F91FF90EF90DF90CF900C94320878
:10127000B80184E0759567958A95E1F7CE010E94E3
:10128000CD086F2DCE01DF91CF911F910F91FF906F
:10129000EF90DF90CF900C94CD0841E00E94FA08C7
:1012A00081E090E0089540E00C94FA08CF93DF933A
:1012B000EC012E813F818A819B812817390719F41F
:1012C0008D81882359F14C8150E028853985429FD2
:1012D000C001439F900D529F900D112428813981A8
:1012E000820F931F0E94F412888599852A813B8181
:1012F0000196B9010E94C812998788878E819F81C3
:101300008217930729F4888599859B878A8705C06A
:101310008E819F8101969F838E8381E0DF91CF91A3
:1013200008958F929F92AF92BF92CF92DF92EF92E9
:10133000FF920F931F93CF93DF937C0121E6E20E80
:10134000F11CF70120812F3F39F46EBD00000DB470
:1013500007FEFDCF8EB536C0D62F27E0822E912C0A
:10136000C0E0CC24C394D12C5C01F2E6AF0EB11CDA
:101370008C010D591F4FCC0F60E0F70180810E9456
:10138000F706B601082C01C0660F0A94EAF76D2330
:10139000F50180810E94F70661E0F70180810E94DB
:1013A000F706F80180810E94CE06892B09F0C16002
:1013B000F1E08F1A9108F8F660E0F70180810E9451
:1013C000F7068C2FDF91CF911F910F91FF90EF9037
:1013D000DF90CF90BF90AF909F908F900895EF9245
:1013E000FF920F931F93CF93DF937C01EB018B014F
:1013F000040F151FC017D10731F06881C7010E9483
:1014000091098993F7CFDF91CF911F910F91FF90B1
:10141000EF9008952F923F924F925F926F927F923A
:101420008F929F92AF92BF92CF92DF92EF92FF92F4
:101430000F931F93CF93DF93CDB7DEB7A1970FB66E
:10144000F894DEBF0FBECDBF8C016C0185EBC80EDA
:10145000D11CFE013196FE8FED8FC801815A9F4F3E
:1014600098A38F8F580191E6A90EB11C7801EEE583
:10147000EE0EF11C90E6892E912CF6012681378123
:1014800082819381821B930B409708F478C084E19A
:10149000ED8DFE8D11928A95E9F7F8014480558013
:1014A00066807780440C551C661C771C0E946D0872
:1014B0006D8B7E8B8F8B988F498E5A8E6B8E7C8E28
:1014C000EF8DF8A180810E94CE06892B41F4CE01D8
:1014D00045960E94C401882399F320E0BAC0F50123
:1014E00080818F3F31F480919202909193020E940B
:1014F000C10160E0F70180810E94F706F801448095
:101500005580668077800E946D086D8B7E8B8F8BF7
:10151000988F498E5A8E6B8E7C8ECE0145960E9496
:10152000C401811128C06FEFC8010E94910989830D
:101530008E3F11F08F3F69F461E0F70180810E94D6
:10154000F706C4010197F1F760E0F70180810E947E
:10155000F70689818E5F823000F30DC0803889F0F4
:10156000CE0145960E94C40181110BC06FEFC801E6
:101570000E94910989838981803281F702C021E02C
:1015800068C0CE0145960E94C401811113C08FEF3F
:101590009FEFAFEF8A839B83AC8343E050E0BE01B3
:1015A0006E5F7F4FC8010E94EF098A812B8199816C
:1015B000903811F4712C1DC090E0922B9A50039733
:1015C000C8F78C818F77682E712CF1E16F1671044A
:1015D0008CF7A3016FEF70E0CE0105960E94FD121B
:1015E000A301BE016B5F7F4FC8010E94EF09772402
:1015F000739461E0F70180810E94F706F501808114
:101600008F3F11F40E94C001272D772011F18C81AA
:101610008F7721F48C8187FD30CF1BC0282E312C91
:101620002E01F5E04F0E511C612C712CB201C60148
:1016300029A30E94560929A1882361F3FFEF6F1A9D
:101640007F0AF6018481480E511C6214730410F75E
:10165000EDCF822FA1960FB6F894DEBF0FBECDBF9F
:10166000DF91CF911F910F91FF90EF90DF90CF907E
:10167000BF90AF909F908F907F906F905F904F90B2
:101680003F902F900895CF92DF92EF92FF920F93A9
:10169000CF93DF931F92CDB7DEB76C017C0185EB52
:1016A000E80EF11CF70186819781892BB1F0448106
:1016B00050E022853385429FC001439F900D529F89
:1016C000900D112460817181680F791FCE01019600
:1016D0000E94F412898190E020C0F6018485811176
:1016E0000AC000E020E040E050E062E07AE0C6019D
:1016F0000E94EA0108C0F601E15AFF4F80810E9472
:10170000CE06892B19F0C6010E940A0AF7018681CC
:101710009781892B61F68FEF9FEF0F90DF91CF912B
:101720000F91FF90EF90DF90CF900895CF92DF92CE
:10173000EF92FF920F93CF93DF931F92CDB7DEB757
:101740006C017C0185EBE80EF11CF7018681978125
:10175000892B49F186819781892B11F1448150E0D1
:1017600022853385429FC001439F900D529F900D6B
:10177000112460817181680F791FCE0101960E944A
:10178000F412F701828593850196628173810E942C
:10179000C812938782878681978101979783868372
:1017A000898190E021C0F601848581110AC000E0A2
:1017B00020E040E050E062E07AE0C6010E94EA01E9
:1017C00008C0F601E15AFF4F80810E94CE06892BA6
:1017D00019F0C6010E940A0AF70186819781892BB8
:1017E00009F0BCCF8FEF9FEF0F90DF91CF910F915A
:1017F000FF90EF90DF90CF900895EF92FF920F93BC
:10180000CF93DF937C0125EBE20EF11CF7012681DB
:101810003781232B81F4FC012485211114C0EC01B4
:1018200000E040E050E062E07AE00E94EA01CE0190
:101830000E940A0AF70186819781DF91CF910F916B
:10184000FF90EF900895FC01E15AFF4F8081DF91F6
:10185000CF910F91FF90EF900C94CE068F929F92B4
:10186000AF92BF92CF92DF92EF92FF920F93CF93FE
:10187000DF935C017B01EA01DC011C968C918823DB
:1018800029F0C60FD71FC12CD12C39C043305105C8
:1018900090F043E050E068E172E0C7010E94E71277
:1018A000892B49F4C330D10541F0F70183818D3094
:1018B00021F08A3011F06E011AC0C5010E94850125
:1018C0001CC04601F1E1CF16D10418F080E1882E4A
:1018D000912CC818D90801E009F400E0282DA701CF
:1018E00061E07AE0C5010E94EA01E80CF91CC1142C
:1018F000D10439F7C5010E940A0ACE0112C0EC16C4
:10190000FD0671F0D7016D917D01D501ED91FC913E
:101910000190F081E02DC5010995C80ED91EEFCFC9
:10192000C601DF91CF910F91FF90EF90DF90CF90A4
:10193000BF90AF909F908F900895AF92BF92CF923B
:10194000DF92EF92FF920F93CF93DF9300D0CDB74A
:10195000DEB77C016983FC01848581110EC000E043
:1019600021E0AE014F5F5F4F61E07AE0C7010E9466
:10197000EA01C7010E940A0A52C0898197012C58C6
:101980003F4F6901F9018D3011F08A3001F5208156
:101990002223E1F15701F4E6AF0EB11C43E050E021
:1019A00068E172E0C5012A830E94E7122A81892B2F
:1019B00021F4C7010E94850107C000E0A50160E095
:1019C0007AE0C7010E94EA01F60110821FC09081EF
:1019D000903191F401E020E15701F4E6AF0EB11C23
:1019E000A50160E07AE0C7010E94EA018981F50162
:1019F000808381E0F60109C021E0290FF6012083F0
:101A0000F701E90FF11DEC59FF4F8083F701858540
:101A1000882329F0698182E492E00E94450681E0F2
:101A200090E00F900F90DF91CF910F91FF90EF908A
:101A3000DF90CF90BF90AF9008950E94E212EF9296
:101A4000FF920F931F93CF93DF93EC01623018F056
:101A50008F8588608F876B8B1C8A80E48D8B80E1FB
:101A60008E8B80E58F8B61E08C810E9427078D81B2
:101A70008F3F19F061E00E94270761E08E810E948C
:101A800027077E0187E0E80EF11C00E010E08F855B
:101A900084FD03C084E090E002C088E090E0081775
:101AA00019074CF461E0F70181917F010E9427073B
:101AB0000F5F1F4FECCF8CE996E80197F1F760E0DC
:101AC0008C810E94F70660E08E810E94F7068D816E
:101AD0008F3F19F060E00E94F7066F8564FD1DC01E
:101AE00063E0CE010E94CD0804E213E2C801019731
:101AF000F1F763E0CE010E94CD08C8010197F1F72C
:101B000063E0CE010E94CD0888E291E00197F1F7F1
:101B100062E0CE010E94CD0816C06062CE010E9434
:101B2000530984E293E20197F1F76F856062CE0179
:101B30000E94530988E291E00197F1F76F85606296
:101B4000CE010E9453096F856062CE010E94530945
:101B500084E0888B6CE0CE010E94530961E0CE01E5
:101B60000E9453098CE99FE00197F1F782E0898B8D
:101B700066E0CE01DF91CF911F910F91FF90EF9022
:101B80000C945309CF92DF92EF92FF920F931F9321
:101B9000CF93DF937C016B018A01C0E0D0E0011597
:101BA000110561F1D701ED91FC910480F581E02DE3
:101BB000C7010995892BC1F0D701ED91FC910680F1
:101BC000F781E02DC70109958D3061F38A3019F452
:101BD000209741F32CC0F601EC0FFD1F8083219666
:101BE000C034D105F8F223C001501109C1F261E0FF
:101BF00070E080E090E00E946307D1CFF601EC0F27
:101C0000FD1F1082F70185858823A1F0209791F0B0
:101C1000B60182E492E00E947006C034D10550F40F
:101C200060E771E082E492E00E94700603C000E089
:101C300010E0B5CFCE01DF91CF911F910F91FF90B2
:101C4000EF90DF90CF900895CF92DF92EF92FF92C6
:101C50000F931F93CF93DF936B01770FEE08FF086D
:101C6000F7FE1BC0EC016DE20E9445068C01442783
:101C70005527BA014C195D096E097F092AE0CE018A
:101C80000E948506800F911FDF91CF911F910F91C8
:101C9000FF90EF90DF90CF9008952AE0B701A60162
:101CA000DF91CF911F910F91FF90EF90DF90CF9038
:101CB0000C948506FC0180914102811103C08FEFD5
:101CC0009FEF08959FB7F89482E08093E9002091F8
:101CD000F20030E01216130614F421E030E0211572
:101CE000310551F084E6809340028091F1008083B9
:101CF0008091F200882319F09FBFC90108958BE6F7
:101D00008093E800F9CF8091710381110DC082E0CA
:101D100080936D0384E080936E03109270031092A1
:101D20006F0381E0809371038DE693E008951F9225
:101D30000F920FB60F9211248F939F938091E10021
:101D40009091E100937F9093E10083FF0FC0109288
:101D5000E90091E09093EB001092EC0092E39093F5
:101D6000ED001092410298E09093F00082FF1CC0B9
:101D700093E09093E9009091F200992319F09AE38F
:101D80009093E80090913F02992329F090913F02AF
:101D9000915090933F0290914002992329F09091A5
:101DA000400291509093400284FF10C08091E20065
:101DB0008E7E81608093E2008091E1008F7E80932F
:101DC000E10080913E028E7E806111C080FF11C0D3
:101DD0008091E2008E7E80618093E2008091E1003C
:101DE0008E7E8093E10080913E028E7E81608093A2
:101DF0003E029F918F910F900FBE0F901F901895EC
:101E0000CF93DF93CDB7DEB7C555D1090FB6F894A0
:101E1000DEBF0FBECDBF66961CAE1DAE1EAE1FAEA2
:101E20006697789484B5826084BD84B5816084BDF2
:101E300085B5826085BD85B5816085BD80916E0068
:101E4000816080936E001092810080918100826099
:101E500080938100809181008160809381008091D6
:101E600080008160809380008091910082608093E7
:101E70009100809191008160809391008091900009
:101E80008160809390008091C10084608093C10044
:101E90008091C10082608093C1008091C100816007
:101EA0008093C1008091C30081608093C3008091C2
:101EB000C00082608093C0008091C20081608093E6
:101EC000C20080917A00846080937A0080917A00C9
:101ED000826080937A0080917A008E7F80937A006E
:101EE00080917A00806880937A0080917A0080687F
:101EF00080937A0080917B00806280937B00809148
:101F00007C00846480937C0080917C008476809344
:101F10007C00789463E771E0CE0182960E941813EA
:101F200068E871E0CE018E5B9F4F0E94181364E851
:101F300071E08DE192E00E94181362E084E992E082
:101F40000E941F0D61E084E992E00E9453098CE930
:101F50009FE00197F1F71092B90260E080910B03C6
:101F60000E94270761E080910A030E94270761E031
:101F700080910A030E94F70680910D038F3F09F0BC
:101F800034C01FB7F89480911C02811127C0EDE284
:101F9000F1E08491ECE4F1E09491E82FF0E0EE0FB1
:101FA000FF1FEE50FF4FA591B491EC91E92321F46E
:101FB00061E081E10E94F70661E081E10E9427076C
:101FC0008CB580618CBD8CB580648CBD61E08FE088
:101FD0000E94270761E080E10E94270780911C0290
:101FE0008F5F80931C021FBF12C061E00E94270711
:101FF00060E080910D030E94F70660E080910F037E
:102000000E94270761E080910E030E94270700E0ED
:1020100020E040E050E06FEE7EEB8CEA92E00E9420
:10202000EA0180910C0387FD18C061E00E94270738
:1020300061E080910C030E94F70660E080910C0340
:102040000E94F7066AE070E080E090E00E9463077B
:1020500061E080910C030E94F7060E946D08609376
:10206000FC027093FD028093FE029093FF0268EEE3
:1020700073E080E090E00E9463076AEC70E08CEA15
:1020800092E00E944C0660E771E08CEA92E00E94C8
:1020900070068CEA92E00E9434010E946D08609301
:1020A000FC027093FD028093FE029093FF0268EEA3
:1020B00073E080E090E00E946307E091AC02F09151
:1020C000AD020284F385E02D8CEA92E009956FE879
:1020D00071E08CEA92E00E94700660E771E08CEAA1
:1020E00092E00E9470068CEA92E00E943401809196
:1020F000B80281111092B802A12CB12CDD24D39426
:10210000E1E08091A7028111E0E0E195F0E0EC567A
:10211000FD4F6489606884E992E00E9453092FEFC3
:10212000E21AF20A8CEA92E00E94FD0B892BD9F0A8
:1021300063961FAE639764961FAE649765961FAE55
:10214000659766961FAE6697AA24A394B12C0BC020
:1021500093E09B1550F0E2E5F0E0EC0FFD1FE00F7F
:10216000F11F8083B3940B2D10E08CEA92E00E9463
:10217000FD0B181619066CF48CEA92E00E94960B7F
:102180008A3031F7E2E5F0E0EC0FFD1FE00FF11FC0
:1021900010828CEA92E00E94FD0B181619062CF4AE
:1021A0008CEA92E00E94960BF4CFE5EFEE16E1E0A8
:1021B000FE0618F4F1E0DF1224C080917A008064FA
:1021C00080937A0080917A0086FDFCCF8091780020
:1021D0002091790090E0922B8F3222E0920718F440
:1021E00069EA71E008C08D37924018F064EB71E045
:1021F00002C064E871E08DE192E00E941813E12CC6
:10220000F12C1091B80211110BC0E091AC02F091C9
:10221000AD020484F585E02D61E08CEA92E0099539
:102220006FED70E08CEA92E00E944C0660E771E08E
:102230008CEA92E00E9470068091B902882331F006
:102240006AED70E082E492E00E944C064091B00298
:102250005091B1026AEB72E08CEA92E00E94C20DEA
:10226000892B59F040E050E060E070E08AEB92E0AA
:102270000E941F132B013C0103C0412C512C320141
:102280008CEA92E00E94340111110BC0E091AC0283
:10229000F091AD020484F585E02D60E08CEA92E0D7
:1022A000099545284628472871F46FEB71E0CE0167
:1022B00001960E94181368E871E0CE018E5B9F4F73
:1022C0000E94181341C0AA2081F100E111E0D12C35
:1022D000F801619171918F01CE018E5A9F4F0E943A
:1022E0000F13892B11F4DD24D394F1E002331F077F
:1022F00079F7DD2009F471C06CEE71E0CE018E5AE1
:102300009F4F0E940F13BE016E5A7F4F892B09F019
:102310005CC0CE018E5B9F4F0E94181366ED71E08A
:10232000CE018E5B9F4F0E940413BE016E5D7F4FF6
:10233000CE0101960E941813BE016E5B7F4FCE0145
:1023400001960E940413A12C6DE172E0CE0101966A
:102350000E9404138E010F5F1F4FC12CD12C912CB2
:10236000F80161918F0184E992E00E944D09FFEF2D
:10237000CF1ADF0A20E2C216D104F9F020E1C2161A
:10238000D10474F39110ECCFE091A702E23010F485
:10239000E15001C0E1E0F0E0EC56FD4F6489606877
:1023A00084E992E00E94530961E070E080E090E0EF
:1023B0000E94630799249394D3CF62E070E080E099
:1023C00090E00E946307D12C9BCECE018E5B9F4F85
:1023D0000E9418136CED71E0A3CF61EE71E0CE01A5
:1023E0008E5B9F4F0E941813A0CFCF92DF92EF9287
:1023F000FF920F931F93CF93DF931F92CDB7DEB75A
:10240000182F062FE42E862F880F8E5F99830E9447
:102410009B0283E00E949B02F12EC12E9981D92E4E
:102420008C2D8F19801798F4F601E7FE02C0849175
:1024300001C080810E949B02182F80E00E949B02B5
:102440008123FFEFCF1ADF0A8111EACF01C081E0BB
:102450000F90DF91CF911F910F91FF90EF90DF9040
:10246000CF900895E2E4F2E01382128288EE93E0C6
:10247000A0E0B0E084839583A683B7838DE391E0E9
:10248000918380838FEF9FEF95878487E2E9F2E065
:1024900080E5808381E08183ECEAF2E0138212829E
:1024A000848715864AEF50E060E070E044835583EE
:1024B000668377831092FC021092FD021092FE0256
:1024C0001092FF0210920103109200031092030376
:1024D0001092020310920503109204031092070356
:1024E00010920603109209031092080325E531E0CB
:1024F0003183208321E233E0309362032093610330
:1025000020E430E0309364032093630380936503F9
:102510008093660310926C0310926B0310926A030F
:1025200010926903109268031092670393E09093EE
:10253000FB0288E080930A0387E080930B0384E02A
:1025400080930C038FEF80930D0380930E03809391
:102550000F0310922003E4E9F2E0138212822DE4CB
:1025600031E0318320832CE0248385838BE08683D4
:102570008AE08783908786E0818785E0828713865B
:10258000148615861686178661E0CF010C941F0D00
:10259000AA1BBB1B51E107C0AA1FBB1FA617B70789
:1025A00010F0A61BB70B881F991F5A95A9F78095A5
:1025B0009095BC01CD010895EE0FFF1F0590F49199
:1025C000E02D099481E090E0F8940C94BF14FB0195
:1025D000DC0104C08D910190801921F441505040DC
:1025E000C8F7881B990B0895FB01DC0102C001901C
:1025F0000D9241505040D8F70895DC0101C06D9311
:1026000041505040E0F70895FB01DC010D9000209F
:10261000E9F7119701900D920020E1F70895FB0171
:10262000DC018D91019080190110D9F3990B089567
:10263000FB01DC0101900D920020E1F70895A0E07C
:10264000B0E0E5E2F3E10C9479145C016B017A01EE
:102650006115710519F0FB0191838083E114F10488
:1026600029F0C7010297839708F0F1C0E501219690
:10267000F5011081812F90E00E943014892B11F018
:102680005E01F4CF1D3229F42196F501118101E09C
:1026900007C01B3221F4E5012296F501118100E00B
:1026A000E114F10459F1F0E1EF16F10461F4103393
:1026B000E1F488818F7D883569F519812296026061
:1026C00070E1E72EF12C88E0E816F10439F12CF4E2
:1026D000F2E0EF16F104C9F12AC08AE0E816F1042D
:1026E00079F0E0E1EE16F10411F550E1E52EF12C60
:1026F000812C912CA12C68E0B62E2CC01033C9F28D
:102700003AE0E32EF12C4CEC842E982CA82C4CE0D3
:10271000B42E20C010E3E114F104A9F698E0E92EEC
:10272000F12C812C912CA12C20E1B22E13C060E061
:1027300070E080E090E897010F2C000C440B550BE3
:102740000E944C1449015A0105C0812C912CA12CE6
:1027500080E4B82E60E020E030E0A90127010F2CD2
:10276000000C660877081E01E0EDE10FEA3060F02A
:102770008FEB810F8A3110F4E9EC05C08FE9810FEE
:102780008A3128F5E9EAE10F8E2F90E08E159F053A
:10279000F4F467FD18C082169306A406B50690F0FF
:1027A000C301B2010E943C149B01AC012E0F311DEC
:1027B000411D511D213031054105F0E85F0710F43E
:1027C00061E001C06FEF2196F1011081CCCF802F25
:1027D0008170C114D10471F0662329F02197F601AC
:1027E000D183C08307C001FF19C02297F601D183AE
:1027F000C08314C067FF12C0811105C02FEF3FEFE7
:102800004FEF5FE704C020E030E040E050E882E2B4
:1028100090E090937A038093790316C0882341F067
:1028200050954095309521953F4F4F4F5F4F0CC0CD
:1028300057FF0AC082E290E090937A038093790375
:102840002FEF3FEF4FEF5FE7B901CA0104C060E02F
:1028500070E080E090E0CDB7DEB7E2E10C94951433
:1028600091110C943914803219F089508550C8F7B1
:102870000895992788270895DB018F939F930E94DD
:102880006E14BF91AF91A29F800D911DA39F900DDB
:10289000B29F900D11240895A1E21A2EAA1BBB1B12
:1028A000FD010DC0AA1FBB1FEE1FFF1FA217B3071C
:1028B000E407F50720F0A21BB30BE40BF50B661F32
:1028C000771F881F991F1A9469F7609570958095F6
:1028D00090959B01AC01BD01CF0108950E94B014F9
:1028E000A59F900DB49F900DA49F800D911D112464
:1028F00008952F923F924F925F926F927F928F92A4
:102900009F92AF92BF92CF92DF92EF92FF920F937E
:102910001F93CF93DF93CDB7DEB7CA1BDB0B0FB688
:10292000F894DEBF0FBECDBF09942A883988488845
:102930005F846E847D848C849B84AA84B984C884DB
:10294000DF80EE80FD800C811B81AA81B981CE0FD2
:10295000D11D0FB6F894DEBF0FBECDBFED010895B7
:10296000A29FB001B39FC001A39F700D811D1124D0
:10297000911DB29F700D811D1124911D0895F89431
:02298000FFCF87
:10298200FFFFFFFF00E10000000000000100000067
:10299200EC01E801EB01EE01F101F401F701FA01AA
:1029A200FD0100020302060209020C020F021202DA
:1029B200150200C18081000000000000001B039D81
:1029C200073C03E903C5033103000000004D09F091
:1029D20002000000009D0C2E0CFD0B960B430B28F1
:1029E2000828014F4B004552524F52000D0A4F4BDF
:1029F2000D0A004445544543544544205349474E2B
:102A02003A202000202020202020202020200041C9
:102A1200542B4741504445564E414D453D4F43523C
:102A220020446973706C6179002020204C4F57203C
:102A320042415400202046554C4C20424154004E05
:102A42004F20434F4E4E454354494F4E20202020A5
:102A5200202020202000204D50482000204D5048AA
:102A6200005343414E2020003130003135003230D6
:102A72000032350033300033350034300034350055
:102A82003530003535003630003635003730003706
:0C2A920035003830003835002B2B2B00AD
:1070000055C000006EC000006CC000006AC00000E7
:1070100068C0000066C0000064C0000062C00000DC
:1070200060C000005EC00000DAC400005AC000006A
:1070300058C0000056C0000054C0000052C00000FC
:1070400050C0000076C000004CC000004AC00000E4
:1070500048C0000046C0000044C0000042C000001C
:1070600040C000003EC000003CC000003AC000002C
:1070700038C0000036C0000034C0000032C000003C
:1070800030C000002EC000002CC000002AC000004C
:1070900028C0000026C0000024C0000022C000005C
:1070A00020C000001EC000001CC0000011241FBE34
:1070B000CFEFDAE0DEBFCDBF11E0A0E0B1E0EEEF50
:1070C000FEE702C005900D92AA3CB107D9F711E086
:1070D000AAECB1E001C01D92A03EB107E1F781D357
:1070E0000CC78ECFF89410926F001092810010920E
:1070F00085001092840081E085BF15BE47980C94EE
:10710000000008952091D4013091D5012F5F3F4FA9
:107110003093D5012093D401932F37FF03C08EEF16
:10712000831B982F990F921710F447980895479A48
:1071300008951F920F920FB60F9211242F938F93E1
:107140009F93EF93FF93109285001092840080919B
:10715000CA019091CB01009729F001979093CB0140
:107160008093CA018091CC019091CD01009729F0C4
:1071700001979093CD018093CC01E0E0F0E0859100
:1071800094918F5F9F4F49F08091CE019091CF01F4
:1071900001969093CF018093CE01FF91EF919F9143
:1071A0008F912F910F900FBE0F901F90189584E034
:1071B0008093E9000DC08091E8008B778093E80010
:1071C00003C08EB3882351F08091E80082FFF9CF8D
:1071D0008091E80085FFEFCF8091F1000895982F0E
:1071E00083E08093E9008091E80085FD0DC08091E7
:1071F000E8008E778093E80003C08EB3882361F0A7
:107200008091E80080FFF9CF9093F10084E690E050
:107210009093CB018093CA0108954F925F926F9231
:107220007F928F929F92AF92BF92CF92DF92EF9216
:10723000FF920F931F93CF93DF9384E08093E90035
:107240008091E80082FF56C284E690E09093CD01E1
:107250008093CC01ACDF182F853481F48CE195E26A
:107260009093CF018093CE0107B600FCFDCFF99932
:10727000FECF81E180935700E89503C0843519F46F
:1072800096DF8DE00DC28C34E1F38035D1F3843785
:1072900021F484E4A4DF80E003C2813611F489E59F
:1072A000FFC18134B1F483DF182F81DF90E0880FB4
:1072B000991FAA2797FDA095BA2F312F330F20E0F1
:1072C000442737FD4095542F822B932BA42BB52BAD
:1072D000B8C1803711F483E5E3C1833549F4C0E0D8
:1072E000D1E089917CDF21E0C730D207D1F7D9C145
:1072F000863521F481E373DF80E3D2C1833731F433
:1073000087E86DDF85E96BDF8EE1CAC18536B9F4A8
:10731000E0E0F0E093E085E090935700E89507B651
:1073200000FCFDCF80935700E89507B600FCFDCF29
:10733000E058FF4FA0E7E030FA0771F7A2CF82379D
:1073400039F4E1E0F0E089E0809357008491A8C12E
:10735000863439F4E0E0F0E089E0809357008491CE
:107360009FC18E3439F4E3E0F0E089E08093570068
:10737000849196C1813539F4E2E0F0E089E08093B0
:10738000570084918DC1823631F489E528DF80E091
:1073900026DF80E885C1823419F0873609F0E5C020
:1073A0001092CF011092CE0102DF082F00DFF82EDD
:1073B000FEDE682E8554823008F071C1902F80E087
:1073C000CF2DD0E0C82BD92B10926F00173609F0C3
:1073D0004BC081E180935700E895DD24CC24C39411
:1073E0003FC0E090D001F090D1010091D201109106
:1073F000D301B6E46B16D9F4ED2DF0E0EE29FF29A8
:10740000E4918E2FECDEDD2081F082E090E0A0E0C0
:10741000B0E0E80EF91E0A1F1B1FE092D001F092A7
:10742000D1010093D2011093D301DC2418C0D801FC
:10743000C701B695A7959795879549D5D0DE82E087
:1074400090E0A0E0B0E0E80EF91E0A1F1B1FE092DA
:10745000D001F092D1010093D2011093D301219772
:10746000209709F0BECF7DC08090D0019090D101CF
:10747000A090D201B090D30196E4691609F05DC0E6
:1074800083E0F40180935700E89507B600FCFDCF38
:1074900054C0F6E46F1661F5772031F1E090D00129
:1074A000F090D1010091D2011091D30180DED82E4D
:1074B000CC24852D90E08C299D29F7010C01409268
:1074C0005700E895112482E090E0A0E0B0E0E80EDB
:1074D000F91E0A1F1B1FE092D001F092D101009308
:1074E000D2011093D30102C062DE582E742423C04F
:1074F000E090D001F090D1010091D2011091D30120
:1075000016950795F794E79452DE682FC701E7D4E4
:107510008091D0019091D101A091D201B091D3017D
:107520000296A11DB11D8093D0019093D101A0932B
:10753000D201B093D301219704C055247724442469
:107540004394209709F0A5CF96E4691641F485E0AD
:10755000F40180935700E89507B600FCFDCF8DE05D
:107560003EDE82E080936F009CC0833471F4009112
:10757000D0011091D1011BDE90E021E0F8010C0157
:1075800020935700E89511247CCE833619F5E090BE
:10759000D001F090D1010091D2011091D30107DE0A
:1075A000F701E16090E021E00C0120935700E8959D
:1075B000112482E090E0A0E0B0E0E80EF91E0A1F7E
:1075C0001B1FE092D001F092D1010093D2011093E1
:1075D000D30157CE8D3661F4E091D001F091D10105
:1075E00085E080935700E89507B600FCFDCF49CEB3
:1075F000823551F4E091D001F091D10105911491BF
:10760000812FEDDD802F4CC0843421F5E090D00136
:10761000F090D1010091D2011091D30116950795F8
:10762000F794E794C4DD682FC70159D48091D00145
:107630009091D101A091D201B091D3010296A11DE8
:10764000B11D8093D0019093D101A093D201B0934A
:10765000D30117CE843609F5E090D001F090D10126
:107660000091D2011091D301D801C701B695A79519
:10767000979587952CD4B3DD82E090E0A0E0B0E050
:10768000E80EF91E0A1F1B1FE092D001F092D101F3
:107690000093D2011093D30104C08B3111F08FE31A
:1076A0009EDD83E08093E9009091E8008091E800FE
:1076B0008E778093E80095FF04C010C08EB38823B6
:1076C000C9F08091E80080FFF9CF8091E8008E77C3
:1076D0008093E80003C08EB3882361F08091E800B6
:1076E00080FFF9CF84E08093E9008091E8008B77F8
:1076F0008093E800DF91CF911F910F91FF90EF9061
:10770000DF90CF90BF90AF909F908F907F906F90C1
:107710005F904F9008959091D801892F8F77813293
:1077200049F58091D9018032A1F0813219F5913A61
:1077300009F58091E800877F8093E8008DE091E073
:1077400067E070E0FBD18091E8008B778093E800E0
:107750000895913279F48091E800877F8093E80062
:107760008DE091E067E070E04DD28091E8008E7787
:107770008093E800089582E061EC42E0A7D083E0C6
:1077800061E842E1A3D084E060E842E19FC084B7B1
:10779000877F84BF88E10FB6F894809360001092D1
:1077A00060000FBE20E880E090E00FB6F8942093D0
:1077B0006100809361000FBE81E085BF92E095BFBC
:1077C0003F9AE1E6F0E0208310824798109289000A
:1077D0008DE78093880090936F0083E08093810011
:1077E000E6C04091000850910108109201081092E3
:1077F000000824B714BE88E10FB6F89480936000A7
:10780000109260000FBEE0E0F0E0859194918F5FF0
:107810009F4F71F020FD0BC021FD0AC0283041F4BC
:107820008091090190910A014817590709F05ADC23
:10783000AEDF78941092CF011092CE010CC0EDDC37
:1078400034D38091CE019091CF018151974210F0B5
:107850001092140157DC80911401882381F78091E4
:10786000E00081608093E0003DDC80E090E00895DE
:10787000FA01923049F0933061F09130F9F485E1EA
:1078800091E022E130E01EC087E291E02EE330E09B
:1078900019C0882329F485E691E024E030E012C085
:1078A000813029F489E691E022E230E00BC0823099
:1078B00029F487E991E028E130E004C080E090E01D
:1078C00020E030E091838083C90108958093E9002E
:1078D0008091EB0081608093EB001092ED0060934B
:1078E000EC004093ED008091EE00881F8827881FF0
:1078F00008958091D80188238CF403C08EB3882327
:10790000B1F08091E80082FFF9CF8091E8008B7799
:107910008093E80008958EB3882349F08091E800B1
:1079200080FFF9CF8091E8008E778093E80008957A
:10793000EF92FF920F931F9345D04CD008ED10E0CB
:10794000F80180818F778083808180688083808147
:107950008F7D808319BC1EBA1092D60180EEE82E6E
:10796000F12CF70180818B7F8083F8018081816019
:10797000808380E060E042E0A9DFE1EEF0E080811A
:107980008E7F8083E2EEF0E0808181608083808161
:1079900088608083F70180818E7F8083F8018081F9
:1079A000806180831F910F91FF90EF900895E7ED24
:1079B000F0E08081816080838AE482BF81E08093EF
:1079C000D701B6CFE8EDF0E080818E7F8083109202
:1079D000E20008951092DA001092E10008951F92DB
:1079E0000F920FB60F9211242F933F934F935F93F3
:1079F0006F937F938F939F93AF93BF93EF93FF9377
:107A00008091DA0080FF1AC08091D80080FF16C0F4
:107A10008091DA008E7F8093DA008091D90080FF18
:107A20000AC019BC82E089BD09B400FEFDCF81E027
:107A30008EBB3AD203C019BC1EBA36D28091E10087
:107A400080FF17C08091E20080FF13C08091E200A8
:107A50008E7F8093E2008091E20080618093E2005B
:107A60008091D80080628093D80019BC85E08EBBDD
:107A70001BD28091E10084FF2BC08091E20084FF43
:107A800027C019BC82E089BD09B400FEFDCF8091FA
:107A9000D8008F7D8093D8008091E1008F7E809305
:107AA000E1008091E2008F7E8093E2008091E2000D
:107AB00081608093E2008091D601882331F4809127
:107AC000E30087FD02C081E001C084E08EBBECD101
:107AD0008091E10083FF21C08091E20083FF1DC0FF
:107AE0008091E100877F8093E10082E08EBB10925D
:107AF000D6018091E1008E7F8093E1008091E200C9
:107B00008E7F8093E2008091E20080618093E200AA
:107B100080E060E042E0DADEC7D1FF91EF91BF91F3
:107B2000AF919F918F917F916F915F914F913F9115
:107B30002F910F900FBE0F901F9018959C014091B0
:107B4000DE015091DF014617570718F4F90190E064
:107B500044C06115710511F0AB01F8CF8091E800C8
:107B60008E778093E80040E050E0F0CF8EB388231A
:107B700009F444C0853009F443C08091E80083FFD4
:107B800002C081E008958091E80082FD31C08091BB
:107B9000E80080FF22C08091F3009091F200782FDE
:107BA00060E0292F30E0262B372B07C0819180938E
:107BB000F100415050402F5F3F4F4115510519F0E2
:107BC0002830310598F390E02830310509F491E030
:107BD0008091E8008E778093E8004115510531F6D9
:107BE000992321F605C08EB3882341F0853041F0FA
:107BF0008091E80082FFF7CF80E0089582E0089549
:107C000083E008959C016115710529F48091E800D5
:107C10008B778093E800F90126C08EB3882391F119
:107C2000853091F18091E80083FF02C081E00895E2
:107C30008091E80082FFF1CF06C08091F10081932E
:107C40006150704059F02091F3008091F200322F82
:107C500020E090E0822B932B892B79F78091E8002C
:107C60008B778093E80061157105B9F605C08EB376
:107C7000882341F0853041F08091E80080FFF7CF04
:107C800080E0089582E0089583E008950F931F93A4
:107C9000DF93CF9300D0CDB7DEB7E8EDF1E0809170
:107CA000F100819381E0E03EF807C9F734DD80916F
:107CB000E80083FFE4C08091D8019091D90195300C
:107CC00009F46DC0963040F4913081F1913070F03C
:107CD000933009F0D4C02AC0983009F4A3C0993079
:107CE00009F4B2C0963009F0CAC07CC0803809F4EB
:107CF000C6C0823809F0C3C08091DC0187708093D0
:107D0000E9008091EB001092E9002091E800277FC4
:107D10002093E80090E025E0969587952A95E1F775
:107D200081708093F1001092F10087C0882319F0D0
:107D3000823009F0A4C08F71823009F0A0C0809118
:107D4000DA01882331F52091DC01277009F497C00E
:107D50002093E9008091EB0080FF1BC0933021F459
:107D60008091EB00806213C08091EB008061809372
:107D7000EB0081E090E002C0880F991F2A95E2F79E
:107D80008093EA001092EA008091EB008860809373
:107D9000EB001092E9008091E800877F51C08823B2
:107DA00009F06DC01091DA011F770FB7F894809138
:107DB000E800877F8093E8009CDD8091E80080FFE9
:107DC000FCCF8091E3008078812B8093E300806872
:107DD0008093E300112311F482E001C083E08EBBA5
:107DE0000FBF4DC08058823008F049C08091DA0141
:107DF0009091DB016091DC01AE014F5F5F4F38DD98
:107E0000BC01009709F43BC08091E800877F809314
:107E1000E80089819A8192DE8091E8008B778093D7
:107E2000E8002DC0803859F58091E800877F809365
:107E3000E8008091D6018093F1008091E8008E7770
:107E40008093E80056DD1BC08823C9F49091DA01C5
:107E50009230A8F48091E800877F8093E8009093A7
:107E6000D60147DD8091D601882331F48091E3006B
:107E700087FD02C081E001C084E08EBB7CDC809184
:107E8000E80083FF0AC08091EB0080628093EB00E2
:107E90008091E800877F8093E8000F900F90CF914A
:107EA000DF911F910F91089508951F938EB388233A
:107EB00061F01091E9001092E9008091E80083FFE1
:107EC00001C0E4DE17701093E9001F910895F9993D
:107ED000FECF92BD81BDF89A992780B50895262FCF
:107EE000F999FECF1FBA92BD81BD20BD0FB6F8949F
:0E7EF000FA9AF99A0FBE01960895F894FFCF02
:107EFE004341544552494E41007777000800000037
:107F0E00000000080112011001020000089A230C63
:107F1E000001000201000109023E00020100803250
:107F2E0009040000010202010005240010010424CE
:107F3E0002040524060001070582030800FF090458
:107F4E000100020A000000070504021000010705E7
:107F5E00830210000104030904220341006400613E
:107F6E00006600720075006900740020004600650E
:107F7E00006100740068006500720020003300325A
:107F8E0000750034000000180341006400610066B3
:107F9E00007200750069007400200049006E0064D4
:107FAE000075007300740072006900650073002094
:0A7FBE00004C004C004300000000DE
:040000030000700089
:00000001FF
