:100000006AC079C078C077C076C075C074C073C04C
:1000100072C071C070C06FC06EC06DC06CC06BC06C
:100020006AC069C069C067C066C065C064C063C09B
:100030008DC061C0C6C09FC09EC09DC09CC09BC0FB
:100040009AC099C0BEC097C096C095C094C093C0D6
:1000500092C091C0C0C08FC08EC08DC08CC08BC0FC
:100060008AC089C088C087C086C085C084C083C05C
:1000700082C081C0B0C07FC07EC07DC07CC07BC05C
:100080007AC079C078C077C076C075C074C073C0BC
:1000900072C071C0B7C06FC06EC06DC06CC06BC0A5
:1000A0006AC069C0B3C067C066C065C064C063C0D1
:1000B00062C061C060C05FC05EC05DC05CC05BC04C
:1000C0005AC059C0B1C057C056C055C054C053C023
:1000D00052C051C067C011241FBECFEFD2E0DEBFB7
:1000E000CDBF11E0A0E0B1E001C01D92AE37B10775
:1000F000E1F707D278C284CF1F920F920FB60F920A
:1001000011242F933F934F935F936F937F938F931C
:100110009F93AF93BF93EF93FF9316D180932801E2
:1001200086E091E0D6D080E0C9D0FF91EF91BF91F9
:10013000AF919F918F917F916F915F914F913F917F
:100140002F910F900FBE0F901F9018951F920F9236
:100150000FB60F9211242F933F938F939F93AF93DA
:10016000BF93EF93FF938091B90090E0FC01389723
:10017000E135F105A0F08091B9008093290184E078
:100180008093BC00FF91EF91BF91AF919F918F91B0
:100190003F912F910F900FBE0F901F901895E65E24
:1001A000FF4F099480910001E0912A01F0912B0109
:1001B000E80FF11D8091BB00808384E98093BC002F
:1001C000E1CF80912C018093BB001092000185E863
:1001D0008093BC00D7CF8091000190912D018917A9
:1001E00060F7E0912A01F0912B0191E0980F909334
:1001F0000001E80FF11D80818093BB0085E88093AA
:10020000BC00C0CF85EA8093BC00BCCF2091000128
:1002100080912D0130E090E0019728173907DCF438
:1002200085EC8093BC00AECFE0912A01F0912B01C8
:100230008091000121E0280F20930001E80FF11DBB
:100240008091BB00808380912D0130E090E0019788
:10025000281739072CF385E88093BC0093CF809151
:10026000BC00817008959091BC0090FDFCCF8E7F02
:1002700080932C0170932B0160932A0140932D01F0
:1002800085EA8093BC0008959091BC0090FDFCCF5E
:10029000816080932C0170932B0160932A0140931D
:1002A0002D0185EA8093BC0008958FEF8093BB00F9
:1002B0001092B9008CE08093B80008959091C0002E
:1002C00095FFFCCF8093C6008091C00085FFFCCFD6
:1002D0000895FC012081222371F031968091C000A5
:1002E00085FFFCCF2093C6008091C00085FFFCCF26
:1002F00021912111F3CF08959C01FC0144914423E5
:1003000091F00196F90124913091C00035FFFCCFA6
:100310002093C6002091C00025FFFCCF9C01FC016A
:1003200044914111EECF0895E1ECF0E080818869BD
:100330008083E2ECF0E08081866080831092C500CB
:1003400083E38093C400089580E89EE303C001978F
:10035000009739F02091C00027FFF9CF8091C600A7
:10036000089580E00895EF92FF920F931F93CF932B
:10037000DF93CDB7DEB760970FB6F894DEBF0FBE40
:10038000CDBFF82E6CDF8111FDCF42E066E271E057
:1003900080E97ADF8FE99FE00197F1F700C0000064
:1003A0002091260130E0322F222780912701282B2F
:1003B000220F331F122F002704E0109F012D112759
:1003C0001124832F99279093050180930401F11044
:1003D00063C09C01220F331F220F331F220F331FD4
:1003E000280F391FADECBCECA8D096958795969553
:1003F00087959C010330110509F040C02F5D3F4FE8
:100400003093050120930401C90123E2E22EF12C6F
:100410004AE050E066E071E0A3D04AE050E0BE015F
:100420006F5F7F4FC7019CD006E011E0F80101909B
:100430000020E9F731978EE28083BE016F5F7F4F26
:10044000CF01019686D0F80101900020E9F731979D
:1004500086E490E09183808380910A01863409F4D8
:100460004AC060960FB6F894DEBF0FBECDBFDF91D5
:10047000CF911F910F91FF90EF900895205E3F4F15
:1004800030930501209304018DE2809F7001819FCC
:10049000F00C1124C901BCCF4AE050E066E071E0E5
:1004A0005FD04AE050E0BE016F5F7F4F89E1282FA7
:1004B000209FC001219F900D112452D006E011E031
:1004C000F80101900020E9F731978EE28083BE01A8
:1004D0006F5F7F4FCF0101963CD0F8010190002063
:1004E000E9F7319783E490E09183808380910A015A
:1004F000833409F0B6CF90E390930A0180930B0107
:10050000B0CF12DFD2DE1092020141E062E071E072
:1005100080E9A9DE78948FE99FE00197F1F700C0A8
:10052000000080912801833429F08634A1F780E00F
:100530001ADFF1CF81E017DFEECFA29FB001B39FAA
:10054000C001A39F01D0B29F700D811D1124911D88
:100550000895FB01DC0101900D920020E1F7089560
:10056000FB019F01E8944230BCF04532ACF44A30C4
:1005700029F497FB1EF4909581959F4F642F772760
:100580001ED0805D8A330CF0895D8193CB0100978A
:10059000A9F716F45DE251931082C90100C0DC0195
:1005A000FC01672F71917723E1F7329704C07C91AA
:1005B0006D9370836291AE17BF07C8F30895AA1BAD
:1005C000BB1B51E107C0AA1FBB1FA617B70710F03E
:1005D000A61BB70B881F991F5A95A9F78095909570
:0A05E000BC01CD010895F894FFCF8F
:00000001FF
